{
  "_format": "hh-sol-artifact-1",
  "contractName": "SocialNetworkProfileData",
  "sourceName": "contracts/SocialNetworkProfileData.sol",
  "abi": [
    {
      "inputs": [
        {
          "internalType": "address",
          "name": "_owner",
          "type": "address"
        },
        {
          "internalType": "address",
          "name": "_user",
          "type": "address"
        }
      ],
      "stateMutability": "nonpayable",
      "type": "constructor"
    },
    {
      "anonymous": false,
      "inputs": [
        {
          "indexed": true,
          "internalType": "bytes32",
          "name": "dataKey",
          "type": "bytes32"
        }
      ],
      "name": "DataChanged",
      "type": "event"
    },
    {
      "anonymous": false,
      "inputs": [
        {
          "indexed": true,
          "internalType": "address",
          "name": "previousOwner",
          "type": "address"
        },
        {
          "indexed": true,
          "internalType": "address",
          "name": "newOwner",
          "type": "address"
        }
      ],
      "name": "OwnershipTransferred",
      "type": "event"
    },
    {
      "inputs": [
        {
          "internalType": "bytes12",
          "name": "_mapKeyNamePrefix",
          "type": "bytes12"
        },
        {
          "internalType": "bytes32",
          "name": "_arrayKeyName",
          "type": "bytes32"
        },
        {
          "internalType": "address",
          "name": "_address",
          "type": "address"
        }
      ],
      "name": "addElementToEnumerableSet",
      "outputs": [
        {
          "internalType": "bool",
          "name": "",
          "type": "bool"
        }
      ],
      "stateMutability": "nonpayable",
      "type": "function"
    },
    {
      "inputs": [
        {
          "internalType": "address",
          "name": "_post",
          "type": "address"
        }
      ],
      "name": "addLike",
      "outputs": [],
      "stateMutability": "nonpayable",
      "type": "function"
    },
    {
      "inputs": [
        {
          "internalType": "address",
          "name": "_post",
          "type": "address"
        }
      ],
      "name": "addPost",
      "outputs": [],
      "stateMutability": "nonpayable",
      "type": "function"
    },
    {
      "inputs": [
        {
          "internalType": "address",
          "name": "_user",
          "type": "address"
        }
      ],
      "name": "addSubscriber",
      "outputs": [],
      "stateMutability": "nonpayable",
      "type": "function"
    },
    {
      "inputs": [
        {
          "internalType": "address",
          "name": "_user",
          "type": "address"
        }
      ],
      "name": "addSubscription",
      "outputs": [],
      "stateMutability": "nonpayable",
      "type": "function"
    },
    {
      "inputs": [
        {
          "internalType": "address",
          "name": "_post",
          "type": "address"
        }
      ],
      "name": "addTag",
      "outputs": [],
      "stateMutability": "nonpayable",
      "type": "function"
    },
    {
      "inputs": [
        {
          "internalType": "bytes12",
          "name": "_mapKeyNamePrefix",
          "type": "bytes12"
        },
        {
          "internalType": "address",
          "name": "_address",
          "type": "address"
        }
      ],
      "name": "getAddressIndexInEnumerableSet",
      "outputs": [
        {
          "internalType": "uint256",
          "name": "",
          "type": "uint256"
        }
      ],
      "stateMutability": "view",
      "type": "function"
    },
    {
      "inputs": [
        {
          "internalType": "bytes32[]",
          "name": "dataKeys",
          "type": "bytes32[]"
        }
      ],
      "name": "getData",
      "outputs": [
        {
          "internalType": "bytes[]",
          "name": "dataValues",
          "type": "bytes[]"
        }
      ],
      "stateMutability": "view",
      "type": "function"
    },
    {
      "inputs": [
        {
          "internalType": "bytes32",
          "name": "dataKey",
          "type": "bytes32"
        }
      ],
      "name": "getData",
      "outputs": [
        {
          "internalType": "bytes",
          "name": "dataValue",
          "type": "bytes"
        }
      ],
      "stateMutability": "view",
      "type": "function"
    },
    {
      "inputs": [
        {
          "internalType": "address",
          "name": "_post",
          "type": "address"
        }
      ],
      "name": "hasLiked",
      "outputs": [
        {
          "internalType": "bool",
          "name": "",
          "type": "bool"
        }
      ],
      "stateMutability": "view",
      "type": "function"
    },
    {
      "inputs": [
        {
          "internalType": "bytes12",
          "name": "_mapKeyNamePrefix",
          "type": "bytes12"
        },
        {
          "internalType": "address",
          "name": "_address",
          "type": "address"
        }
      ],
      "name": "isAddressInEnumerableSet",
      "outputs": [
        {
          "internalType": "bool",
          "name": "",
          "type": "bool"
        }
      ],
      "stateMutability": "view",
      "type": "function"
    },
    {
      "inputs": [
        {
          "internalType": "address",
          "name": "_post",
          "type": "address"
        }
      ],
      "name": "isAuthorOf",
      "outputs": [
        {
          "internalType": "bool",
          "name": "",
          "type": "bool"
        }
      ],
      "stateMutability": "view",
      "type": "function"
    },
    {
      "inputs": [
        {
          "internalType": "address",
          "name": "_user",
          "type": "address"
        }
      ],
      "name": "isSubscribedBy",
      "outputs": [
        {
          "internalType": "bool",
          "name": "",
          "type": "bool"
        }
      ],
      "stateMutability": "view",
      "type": "function"
    },
    {
      "inputs": [
        {
          "internalType": "address",
          "name": "_user",
          "type": "address"
        }
      ],
      "name": "isSubscriberOf",
      "outputs": [
        {
          "internalType": "bool",
          "name": "",
          "type": "bool"
        }
      ],
      "stateMutability": "view",
      "type": "function"
    },
    {
      "inputs": [
        {
          "internalType": "address",
          "name": "_post",
          "type": "address"
        }
      ],
      "name": "isTaggedIn",
      "outputs": [
        {
          "internalType": "bool",
          "name": "",
          "type": "bool"
        }
      ],
      "stateMutability": "view",
      "type": "function"
    },
    {
      "inputs": [
        {
          "internalType": "bytes32",
          "name": "_arrayKeyName",
          "type": "bytes32"
        }
      ],
      "name": "length",
      "outputs": [
        {
          "internalType": "uint256",
          "name": "",
          "type": "uint256"
        }
      ],
      "stateMutability": "view",
      "type": "function"
    },
    {
      "inputs": [],
      "name": "owner",
      "outputs": [
        {
          "internalType": "address",
          "name": "",
          "type": "address"
        }
      ],
      "stateMutability": "view",
      "type": "function"
    },
    {
      "inputs": [
        {
          "internalType": "bytes12",
          "name": "_mapKeyNamePrefix",
          "type": "bytes12"
        },
        {
          "internalType": "bytes32",
          "name": "_arrayKeyName",
          "type": "bytes32"
        },
        {
          "internalType": "address",
          "name": "_address",
          "type": "address"
        }
      ],
      "name": "removeElementFromEnumerableSet",
      "outputs": [
        {
          "internalType": "bool",
          "name": "",
          "type": "bool"
        }
      ],
      "stateMutability": "nonpayable",
      "type": "function"
    },
    {
      "inputs": [
        {
          "internalType": "address",
          "name": "_post",
          "type": "address"
        }
      ],
      "name": "removeLike",
      "outputs": [],
      "stateMutability": "nonpayable",
      "type": "function"
    },
    {
      "inputs": [
        {
          "internalType": "address",
          "name": "_user",
          "type": "address"
        }
      ],
      "name": "removeSubscriber",
      "outputs": [],
      "stateMutability": "nonpayable",
      "type": "function"
    },
    {
      "inputs": [
        {
          "internalType": "address",
          "name": "_user",
          "type": "address"
        }
      ],
      "name": "removeSubscription",
      "outputs": [],
      "stateMutability": "nonpayable",
      "type": "function"
    },
    {
      "inputs": [],
      "name": "renounceOwnership",
      "outputs": [],
      "stateMutability": "nonpayable",
      "type": "function"
    },
    {
      "inputs": [
        {
          "internalType": "bytes32[]",
          "name": "dataKeys",
          "type": "bytes32[]"
        },
        {
          "internalType": "bytes[]",
          "name": "dataValues",
          "type": "bytes[]"
        }
      ],
      "name": "setData",
      "outputs": [],
      "stateMutability": "nonpayable",
      "type": "function"
    },
    {
      "inputs": [
        {
          "internalType": "bytes32",
          "name": "dataKey",
          "type": "bytes32"
        },
        {
          "internalType": "bytes",
          "name": "dataValue",
          "type": "bytes"
        }
      ],
      "name": "setData",
      "outputs": [],
      "stateMutability": "nonpayable",
      "type": "function"
    },
    {
      "inputs": [
        {
          "internalType": "bytes4",
          "name": "interfaceId",
          "type": "bytes4"
        }
      ],
      "name": "supportsInterface",
      "outputs": [
        {
          "internalType": "bool",
          "name": "",
          "type": "bool"
        }
      ],
      "stateMutability": "view",
      "type": "function"
    },
    {
      "inputs": [],
      "name": "timestamp",
      "outputs": [
        {
          "internalType": "uint256",
          "name": "",
          "type": "uint256"
        }
      ],
      "stateMutability": "view",
      "type": "function"
    },
    {
      "inputs": [
        {
          "internalType": "address",
          "name": "newOwner",
          "type": "address"
        }
      ],
      "name": "transferOwnership",
      "outputs": [],
      "stateMutability": "nonpayable",
      "type": "function"
    },
    {
      "inputs": [],
      "name": "user",
      "outputs": [
        {
          "internalType": "address",
          "name": "",
          "type": "address"
        }
      ],
      "stateMutability": "view",
      "type": "function"
    }
  ],
  "bytecode": "0x60806040523480156200001157600080fd5b5060405162002038380380620020388339810160408190526200003491620000fd565b81806200004c816200007960201b620014471760201c565b5050600280546001600160a01b0319166001600160a01b0392909216919091179055504260035562000135565b6000546001600160a01b03828116911614620000dd57600080546001600160a01b038381166001600160a01b0319831681178455604051919092169283917f8be0079c531659141344cd1fd0a4f28419497f9722a3daafe3b4186f6b6457e09190a3505b50565b80516001600160a01b0381168114620000f857600080fd5b919050565b600080604083850312156200011157600080fd5b6200011c83620000e0565b91506200012c60208401620000e0565b90509250929050565b611ef380620001456000396000f3fe608060405234801561001057600080fd5b50600436106101c45760003560e01c80637f23690c116100f9578063a9dbaf2511610097578063cf65920211610071578063cf659202146103f8578063d1d05dae1461040b578063f29362511461041e578063f2fde38b1461043157600080fd5b8063a9dbaf25146103bb578063b80777ea146103dc578063cacbcb70146103e557600080fd5b80638da5cb5b116100d35780638da5cb5b1461036457806390f881751461038257806394555d1a14610395578063a6771ab1146103a857600080fd5b80637f23690c1461032b578063888b9afe1461033e5780638b61ed871461035157600080fd5b80634e3e6e9c1161016657806355b135031161014057806355b13503146102ea5780635d2052a8146102fd578063627c34ad14610310578063715018a61461032357600080fd5b80634e3e6e9c146102655780634f8632ba1461028557806354f6127f146102ca57600080fd5b806312e423a9116101a257806312e423a91461021757806314a6e2931461022a5780633ff754421461023f5780634c13e9f11461025257600080fd5b806301ffc9a7146101c95780630617e80e146101f15780631042c45b14610204575b600080fd5b6101dc6101d7366004611801565b610444565b60405190151581526020015b60405180910390f35b6101dc6101ff366004611865565b6104a0565b6101dc610212366004611865565b6104cc565b6101dc6102253660046118b7565b6104f8565b61023d610238366004611a92565b610a44565b005b61023d61024d366004611865565b610b37565b6101dc6102603660046118b7565b610b8e565b610278610273366004611b67565b610e70565b6040516101e89190611c07565b6002546102a59073ffffffffffffffffffffffffffffffffffffffff1681565b60405173ffffffffffffffffffffffffffffffffffffffff90911681526020016101e8565b6102dd6102d8366004611c87565b610f24565b6040516101e89190611ca0565b6101dc6102f8366004611865565b610f2f565b61023d61030b366004611865565b610f5b565b61023d61031e366004611865565b610fae565b61023d611001565b61023d610339366004611cb3565b611015565b61023d61034c366004611865565b611027565b6101dc61035f366004611865565b61107a565b60005473ffffffffffffffffffffffffffffffffffffffff166102a5565b6101dc610390366004611cfa565b6110a2565b61023d6103a3366004611865565b6110b7565b6101dc6103b6366004611865565b61110a565b6103ce6103c9366004611c87565b611136565b6040519081526020016101e8565b6103ce60035481565b61023d6103f3366004611865565b611175565b6103ce610406366004611cfa565b6111c8565b61023d610419366004611865565b6112ea565b61023d61042c366004611865565b61133d565b61023d61043f366004611865565b611390565b60007fffffffff0000000000000000000000000000000000000000000000000000000082167f9b0fef4c00000000000000000000000000000000000000000000000000000000148061049a575061049a826114de565b92915050565b600061049a7f6737a26dc0027d9a475700000000000000000000000000000000000000000000836110a2565b600061049a7fc108b10b147caa96224e00000000000000000000000000000000000000000000836110a2565b60008061050585846111c8565b905080610516576000915050610a3d565b6040517fe1fd2a030000000000000000000000000000000000000000000000000000000081527fffffffffffffffffffffffff00000000000000000000000000000000000000008616600482015273ffffffffffffffffffffffffffffffffffffffff8416602482015260009073__$2ed68bf94fb46cb586c30c069e83373029$__9063e1fd2a039060440160206040518083038186803b1580156105ba57600080fd5b505af41580156105ce573d6000803e3d6000fd5b505050506040513d601f19601f820116820180604052508101906105f29190611d31565b905060006106008684611575565b9050600061060d87610f24565b8060200190518101906106209190611d31565b9050600061062e8883611575565b9050606080600084881461087e5760408051600580825260c08201909252906020820160a0803683370190505060408051600580825260c08201909252919450816020015b6060815260200190600190039081610673579050509150600061069585610f24565b8060200190518101906106a89190611d4a565b6040517fe1fd2a030000000000000000000000000000000000000000000000000000000081527fffffffffffffffffffffffff00000000000000000000000000000000000000008f16600482015273ffffffffffffffffffffffffffffffffffffffff8216602482015290915060009073__$2ed68bf94fb46cb586c30c069e83373029$__9063e1fd2a039060440160206040518083038186803b15801561074f57600080fd5b505af4158015610763573d6000803e3d6000fd5b505050506040513d601f19601f820116820180604052508101906107879190611d31565b90508785848151811061079c5761079c611d67565b602002602001018181525050816040516020016107d5919073ffffffffffffffffffffffffffffffffffffffff91909116815260200190565b6040516020818303038152906040528484815181106107f6576107f6611d67565b60200260200101819052508261080b90611dc5565b92508085848151811061082057610820611d67565b6020026020010181815250508960405160200161083f91815260200190565b60405160208183030381529060405284848151811061086057610860611d67565b60200260200101819052508261087590611dc5565b925050506108cd565b6040805160038082526080820190925290602082016060803683370190505060408051600380825260808201909252919450816020015b60608152602001906001900390816108b55790505091505b868382815181106108e0576108e0611d67565b60209081029190910181019190915260408051600081529182019052825183908390811061091057610910611d67565b60200260200101819052508061092590611dc5565b90508383828151811061093a5761093a611d67565b60209081029190910181019190915260408051600081529182019052825183908390811061096a5761096a611d67565b60200260200101819052508061097f90611dc5565b90508a83828151811061099457610994611d67565b60200260200101818152505060018511156109f7576109b4600186611dfe565b6040516020016109c691815260200190565b6040516020818303038152906040528282815181106109e7576109e7611d67565b6020026020010181905250610a26565b6040805160008152602081019091528251839083908110610a1a57610a1a611d67565b60200260200101819052505b610a308383610a44565b6001985050505050505050505b9392505050565b610a4c6115da565b8051825114610ae2576040517f08c379a000000000000000000000000000000000000000000000000000000000815260206004820152602660248201527f4b657973206c656e677468206e6f7420657175616c20746f2076616c7565732060448201527f6c656e677468000000000000000000000000000000000000000000000000000060648201526084015b60405180910390fd5b60005b8251811015610b3257610b2a838281518110610b0357610b03611d67565b6020026020010151838381518110610b1d57610b1d611d67565b6020026020010151611677565b600101610ae5565b505050565b610b3f6115da565b610b8a7f7e8492281728d34c260d000000000000000000000000000000000000000000007fe01ddb6ad4391dac642308cf420c56ac6a269002a7475dafeee62ea09be7a11483610b8e565b5050565b600080610b9b85846111c8565b90508015610bad576000915050610a3d565b6040517fe1fd2a030000000000000000000000000000000000000000000000000000000081527fffffffffffffffffffffffff00000000000000000000000000000000000000008616600482015273ffffffffffffffffffffffffffffffffffffffff8416602482015260009073__$2ed68bf94fb46cb586c30c069e83373029$__9063e1fd2a039060440160206040518083038186803b158015610c5157600080fd5b505af4158015610c65573d6000803e3d6000fd5b505050506040513d601f19601f82011682018060405250810190610c899190611d31565b90506000610c9686610f24565b905060008082511115610cba5781806020019051810190610cb79190611d31565b90505b6000610cc7826001611e15565b90506000610cd58983611575565b6040805160038082526080820190925291925060009190602082016060803683375050604080516003808252608082019092529293506000929150602082015b6060815260200190600190039081610d155790505090508682600081518110610d4057610d40611d67565b60200260200101818152505083604051602001610d5f91815260200190565b60405160208183030381529060405281600081518110610d8157610d81611d67565b60200260200101819052508a82600181518110610da057610da0611d67565b60200260200101818152505083604051602001610dbf91815260200190565b60405160208183030381529060405281600181518110610de157610de1611d67565b60200260200101819052508282600281518110610e0057610e00611d67565b60200260200101818152505089604051602001610e39919073ffffffffffffffffffffffffffffffffffffffff91909116815260200190565b60405160208183030381529060405281600281518110610e5b57610e5b611d67565b6020026020010181905250610a308282610a44565b6060815167ffffffffffffffff811115610e8c57610e8c6118f7565b604051908082528060200260200182016040528015610ebf57816020015b6060815260200190600190039081610eaa5790505b50905060005b8251811015610f1e57610ef0838281518110610ee357610ee3611d67565b60200260200101516116c6565b828281518110610f0257610f02611d67565b6020026020010181905250610f178160010190565b9050610ec5565b50919050565b606061049a826116c6565b600061049a7f90f039af6118e0ccbbd000000000000000000000000000000000000000000000836110a2565b610f636115da565b610b8a7fc108b10b147caa96224e000000000000000000000000000000000000000000007f5a1ba2b446b30525fe4638569ee418eac7ca8fcc0a03f2c4843dd04d27e8c1ac836104f8565b610fb66115da565b610b8a7f90f039af6118e0ccbbd0000000000000000000000000000000000000000000007f8a82c15a8cea01b6a5d0db3b14e480dfe3197f0aa048e916d77b79abcc7a697c836104f8565b6110096115da565b6110136000611447565b565b61101d6115da565b610b8a8282611677565b61102f6115da565b610b8a7f1e3d423e52a0cd35309e000000000000000000000000000000000000000000007fd74f936d1543a0f1abf8190b00fe9837297a24c4b3d832915264e825bc3fc0c883610b8e565b600061049a7f7e8492281728d34c260d00000000000000000000000000000000000000000000835b60006110ae83836111c8565b15159392505050565b6110bf6115da565b610b8a7f90f039af6118e0ccbbd0000000000000000000000000000000000000000000007f8a82c15a8cea01b6a5d0db3b14e480dfe3197f0aa048e916d77b79abcc7a697c83610b8e565b600061049a7f1e3d423e52a0cd35309e00000000000000000000000000000000000000000000836110a2565b60008061114283610f24565b90508051600014156111575750600092915050565b60008180602001905181019061116d9190611d31565b949350505050565b61117d6115da565b610b8a7f6737a26dc0027d9a4757000000000000000000000000000000000000000000007fafd89daf17abdaf5797bc0e7d4dbdc56a217d1b6e08b426b40b8f99b9a03fc6c83610b8e565b6040517fe1fd2a030000000000000000000000000000000000000000000000000000000081527fffffffffffffffffffffffff00000000000000000000000000000000000000008316600482015273ffffffffffffffffffffffffffffffffffffffff82166024820152600090819073__$2ed68bf94fb46cb586c30c069e83373029$__9063e1fd2a039060440160206040518083038186803b15801561126e57600080fd5b505af4158015611282573d6000803e3d6000fd5b505050506040513d601f19601f820116820180604052508101906112a69190611d31565b905060006112b382610f24565b90508051600014156112ca5760009250505061049a565b6000818060200190518101906112e09190611d31565b9695505050505050565b6112f26115da565b610b8a7f1e3d423e52a0cd35309e000000000000000000000000000000000000000000007fd74f936d1543a0f1abf8190b00fe9837297a24c4b3d832915264e825bc3fc0c8836104f8565b6113456115da565b610b8a7fc108b10b147caa96224e000000000000000000000000000000000000000000007f5a1ba2b446b30525fe4638569ee418eac7ca8fcc0a03f2c4843dd04d27e8c1ac83610b8e565b6113986115da565b73ffffffffffffffffffffffffffffffffffffffff811661143b576040517f08c379a000000000000000000000000000000000000000000000000000000000815260206004820152602660248201527f4f776e61626c653a206e6577206f776e657220697320746865207a65726f206160448201527f64647265737300000000000000000000000000000000000000000000000000006064820152608401610ad9565b61144481611447565b50565b60005473ffffffffffffffffffffffffffffffffffffffff828116911614611444576000805473ffffffffffffffffffffffffffffffffffffffff8381167fffffffffffffffffffffffff0000000000000000000000000000000000000000831681178455604051919092169283917f8be0079c531659141344cd1fd0a4f28419497f9722a3daafe3b4186f6b6457e09190a35050565b60007fffffffff0000000000000000000000000000000000000000000000000000000082167f714df77c00000000000000000000000000000000000000000000000000000000148061049a57507f01ffc9a7000000000000000000000000000000000000000000000000000000007fffffffff0000000000000000000000000000000000000000000000000000000083161461049a565b6000806115cf848460801b604080517fffffffffffffffffffffffffffffffff0000000000000000000000000000000080851660208301528316603082015260609101604051602081830303815290604052905092915050565b905061116d81611e2d565b336115fa60005473ffffffffffffffffffffffffffffffffffffffff1690565b73ffffffffffffffffffffffffffffffffffffffff1614611013576040517f08c379a000000000000000000000000000000000000000000000000000000000815260206004820181905260248201527f4f776e61626c653a2063616c6c6572206973206e6f7420746865206f776e65726044820152606401610ad9565b6000828152600160209081526040909120825161169692840190611768565b5060405182907fcdf4e344c0d23d4cdd0474039d176c55b19d531070dbe17856bfb993a5b5720b90600090a25050565b60008181526001602052604090208054606091906116e390611e6f565b80601f016020809104026020016040519081016040528092919081815260200182805461170f90611e6f565b801561175c5780601f106117315761010080835404028352916020019161175c565b820191906000526020600020905b81548152906001019060200180831161173f57829003601f168201915b50505050509050919050565b82805461177490611e6f565b90600052602060002090601f01602090048101928261179657600085556117dc565b82601f106117af57805160ff19168380011785556117dc565b828001600101855582156117dc579182015b828111156117dc5782518255916020019190600101906117c1565b506117e89291506117ec565b5090565b5b808211156117e857600081556001016117ed565b60006020828403121561181357600080fd5b81357fffffffff0000000000000000000000000000000000000000000000000000000081168114610a3d57600080fd5b73ffffffffffffffffffffffffffffffffffffffff8116811461144457600080fd5b60006020828403121561187757600080fd5b8135610a3d81611843565b80357fffffffffffffffffffffffff0000000000000000000000000000000000000000811681146118b257600080fd5b919050565b6000806000606084860312156118cc57600080fd5b6118d584611882565b92506020840135915060408401356118ec81611843565b809150509250925092565b7f4e487b7100000000000000000000000000000000000000000000000000000000600052604160045260246000fd5b604051601f82017fffffffffffffffffffffffffffffffffffffffffffffffffffffffffffffffe016810167ffffffffffffffff8111828210171561196d5761196d6118f7565b604052919050565b600067ffffffffffffffff82111561198f5761198f6118f7565b5060051b60200190565b600082601f8301126119aa57600080fd5b813560206119bf6119ba83611975565b611926565b82815260059290921b840181019181810190868411156119de57600080fd5b8286015b848110156119f957803583529183019183016119e2565b509695505050505050565b600082601f830112611a1557600080fd5b813567ffffffffffffffff811115611a2f57611a2f6118f7565b611a6060207fffffffffffffffffffffffffffffffffffffffffffffffffffffffffffffffe0601f84011601611926565b818152846020838601011115611a7557600080fd5b816020850160208301376000918101602001919091529392505050565b60008060408385031215611aa557600080fd5b823567ffffffffffffffff80821115611abd57600080fd5b611ac986838701611999565b9350602091508185013581811115611ae057600080fd5b8501601f81018713611af157600080fd5b8035611aff6119ba82611975565b81815260059190911b82018401908481019089831115611b1e57600080fd5b8584015b83811015611b5657803586811115611b3a5760008081fd5b611b488c8983890101611a04565b845250918601918601611b22565b508096505050505050509250929050565b600060208284031215611b7957600080fd5b813567ffffffffffffffff811115611b9057600080fd5b61116d84828501611999565b6000815180845260005b81811015611bc257602081850181015186830182015201611ba6565b81811115611bd4576000602083870101525b50601f017fffffffffffffffffffffffffffffffffffffffffffffffffffffffffffffffe0169290920160200192915050565b6000602080830181845280855180835260408601915060408160051b870101925083870160005b82811015611c7a577fffffffffffffffffffffffffffffffffffffffffffffffffffffffffffffffc0888603018452611c68858351611b9c565b94509285019290850190600101611c2e565b5092979650505050505050565b600060208284031215611c9957600080fd5b5035919050565b602081526000610a3d6020830184611b9c565b60008060408385031215611cc657600080fd5b82359150602083013567ffffffffffffffff811115611ce457600080fd5b611cf085828601611a04565b9150509250929050565b60008060408385031215611d0d57600080fd5b611d1683611882565b91506020830135611d2681611843565b809150509250929050565b600060208284031215611d4357600080fd5b5051919050565b600060208284031215611d5c57600080fd5b8151610a3d81611843565b7f4e487b7100000000000000000000000000000000000000000000000000000000600052603260045260246000fd5b7f4e487b7100000000000000000000000000000000000000000000000000000000600052601160045260246000fd5b60007fffffffffffffffffffffffffffffffffffffffffffffffffffffffffffffffff821415611df757611df7611d96565b5060010190565b600082821015611e1057611e10611d96565b500390565b60008219821115611e2857611e28611d96565b500190565b80516020808301519190811015610f1e577fffffffffffffffffffffffffffffffffffffffffffffffffffffffffffffffff60209190910360031b1b16919050565b600181811c90821680611e8357607f821691505b60208210811415610f1e577f4e487b7100000000000000000000000000000000000000000000000000000000600052602260045260246000fdfea2646970667358221220dd2781d6a1918c21e94897619d3ecd151b99c8033633af554e46e1f1fbc53c0264736f6c63430008090033",
  "linkReferences": {
    "contracts/LSP2KeyUtil.sol": {
      "LSP2KeyUtil": [
        {
          "length": 20,
          "start": 1738
        },
        {
          "length": 20,
          "start": 2143
        },
        {
          "length": 20,
          "start": 3425
        },
        {
          "length": 20,
          "start": 4990
        }
      ]
    }
  },
  "deployedLinkReferences": {
    "contracts/LSP2KeyUtil.sol": {
      "LSP2KeyUtil": [
        {
          "length": 20,
          "start": 1413
        },
        {
          "length": 20,
          "start": 1818
        },
        {
          "length": 20,
          "start": 3100
        },
        {
          "length": 20,
          "start": 4665
        }
      ]
    }
  }
}