{
  "_format": "hh-sol-artifact-1",
  "contractName": "SocialNetworkPost",
  "sourceName": "contracts/SocialNetworkPost.sol",
  "abi": [
    {
      "inputs": [
        {
          "internalType": "address",
          "name": "_owner",
          "type": "address"
        },
        {
          "internalType": "address",
          "name": "_author",
          "type": "address"
        },
        {
          "internalType": "enum SocialNetworkPostType",
          "name": "_postType",
          "type": "uint8"
        },
        {
          "internalType": "address[]",
          "name": "_taggedUsers",
          "type": "address[]"
        },
        {
          "internalType": "bytes",
          "name": "_data",
          "type": "bytes"
        },
        {
          "internalType": "address",
          "name": "_referencedPost",
          "type": "address"
        }
      ],
      "stateMutability": "nonpayable",
      "type": "constructor"
    },
    {
      "anonymous": false,
      "inputs": [
        {
          "indexed": true,
          "internalType": "bytes32",
          "name": "dataKey",
          "type": "bytes32"
        }
      ],
      "name": "DataChanged",
      "type": "event"
    },
    {
      "anonymous": false,
      "inputs": [
        {
          "indexed": true,
          "internalType": "address",
          "name": "previousOwner",
          "type": "address"
        },
        {
          "indexed": true,
          "internalType": "address",
          "name": "newOwner",
          "type": "address"
        }
      ],
      "name": "OwnershipTransferred",
      "type": "event"
    },
    {
      "inputs": [
        {
          "internalType": "address",
          "name": "_comment",
          "type": "address"
        }
      ],
      "name": "addComment",
      "outputs": [],
      "stateMutability": "nonpayable",
      "type": "function"
    },
    {
      "inputs": [
        {
          "internalType": "bytes12",
          "name": "_mapKeyNamePrefix",
          "type": "bytes12"
        },
        {
          "internalType": "bytes32",
          "name": "_arrayKeyName",
          "type": "bytes32"
        },
        {
          "internalType": "address",
          "name": "_address",
          "type": "address"
        }
      ],
      "name": "addElementToEnumerableSet",
      "outputs": [
        {
          "internalType": "bool",
          "name": "",
          "type": "bool"
        }
      ],
      "stateMutability": "nonpayable",
      "type": "function"
    },
    {
      "inputs": [
        {
          "internalType": "address",
          "name": "_user",
          "type": "address"
        }
      ],
      "name": "addLike",
      "outputs": [],
      "stateMutability": "nonpayable",
      "type": "function"
    },
    {
      "inputs": [
        {
          "internalType": "address",
          "name": "_share",
          "type": "address"
        }
      ],
      "name": "addShare",
      "outputs": [],
      "stateMutability": "nonpayable",
      "type": "function"
    },
    {
      "inputs": [],
      "name": "author",
      "outputs": [
        {
          "internalType": "address",
          "name": "",
          "type": "address"
        }
      ],
      "stateMutability": "view",
      "type": "function"
    },
    {
      "inputs": [
        {
          "internalType": "bytes12",
          "name": "_mapKeyNamePrefix",
          "type": "bytes12"
        },
        {
          "internalType": "address",
          "name": "_address",
          "type": "address"
        }
      ],
      "name": "getAddressIndexInEnumerableSet",
      "outputs": [
        {
          "internalType": "uint256",
          "name": "",
          "type": "uint256"
        }
      ],
      "stateMutability": "view",
      "type": "function"
    },
    {
      "inputs": [
        {
          "internalType": "bytes32[]",
          "name": "dataKeys",
          "type": "bytes32[]"
        }
      ],
      "name": "getData",
      "outputs": [
        {
          "internalType": "bytes[]",
          "name": "dataValues",
          "type": "bytes[]"
        }
      ],
      "stateMutability": "view",
      "type": "function"
    },
    {
      "inputs": [
        {
          "internalType": "bytes32",
          "name": "dataKey",
          "type": "bytes32"
        }
      ],
      "name": "getData",
      "outputs": [
        {
          "internalType": "bytes",
          "name": "dataValue",
          "type": "bytes"
        }
      ],
      "stateMutability": "view",
      "type": "function"
    },
    {
      "inputs": [
        {
          "internalType": "bytes12",
          "name": "_mapKeyNamePrefix",
          "type": "bytes12"
        },
        {
          "internalType": "address",
          "name": "_address",
          "type": "address"
        }
      ],
      "name": "isAddressInEnumerableSet",
      "outputs": [
        {
          "internalType": "bool",
          "name": "",
          "type": "bool"
        }
      ],
      "stateMutability": "view",
      "type": "function"
    },
    {
      "inputs": [
        {
          "internalType": "address",
          "name": "_user",
          "type": "address"
        }
      ],
      "name": "isLikedBy",
      "outputs": [
        {
          "internalType": "bool",
          "name": "",
          "type": "bool"
        }
      ],
      "stateMutability": "view",
      "type": "function"
    },
    {
      "inputs": [
        {
          "internalType": "address",
          "name": "_user",
          "type": "address"
        }
      ],
      "name": "isUserTagged",
      "outputs": [
        {
          "internalType": "bool",
          "name": "",
          "type": "bool"
        }
      ],
      "stateMutability": "view",
      "type": "function"
    },
    {
      "inputs": [
        {
          "internalType": "bytes32",
          "name": "_arrayKeyName",
          "type": "bytes32"
        }
      ],
      "name": "length",
      "outputs": [
        {
          "internalType": "uint256",
          "name": "",
          "type": "uint256"
        }
      ],
      "stateMutability": "view",
      "type": "function"
    },
    {
      "inputs": [],
      "name": "owner",
      "outputs": [
        {
          "internalType": "address",
          "name": "",
          "type": "address"
        }
      ],
      "stateMutability": "view",
      "type": "function"
    },
    {
      "inputs": [],
      "name": "postType",
      "outputs": [
        {
          "internalType": "enum SocialNetworkPostType",
          "name": "",
          "type": "uint8"
        }
      ],
      "stateMutability": "view",
      "type": "function"
    },
    {
      "inputs": [],
      "name": "referencedPost",
      "outputs": [
        {
          "internalType": "address",
          "name": "",
          "type": "address"
        }
      ],
      "stateMutability": "view",
      "type": "function"
    },
    {
      "inputs": [
        {
          "internalType": "bytes12",
          "name": "_mapKeyNamePrefix",
          "type": "bytes12"
        },
        {
          "internalType": "bytes32",
          "name": "_arrayKeyName",
          "type": "bytes32"
        },
        {
          "internalType": "address",
          "name": "_address",
          "type": "address"
        }
      ],
      "name": "removeElementFromEnumerableSet",
      "outputs": [
        {
          "internalType": "bool",
          "name": "",
          "type": "bool"
        }
      ],
      "stateMutability": "nonpayable",
      "type": "function"
    },
    {
      "inputs": [
        {
          "internalType": "address",
          "name": "_user",
          "type": "address"
        }
      ],
      "name": "removeLike",
      "outputs": [],
      "stateMutability": "nonpayable",
      "type": "function"
    },
    {
      "inputs": [],
      "name": "renounceOwnership",
      "outputs": [],
      "stateMutability": "nonpayable",
      "type": "function"
    },
    {
      "inputs": [
        {
          "internalType": "bytes32[]",
          "name": "dataKeys",
          "type": "bytes32[]"
        },
        {
          "internalType": "bytes[]",
          "name": "dataValues",
          "type": "bytes[]"
        }
      ],
      "name": "setData",
      "outputs": [],
      "stateMutability": "nonpayable",
      "type": "function"
    },
    {
      "inputs": [
        {
          "internalType": "bytes32",
          "name": "dataKey",
          "type": "bytes32"
        },
        {
          "internalType": "bytes",
          "name": "dataValue",
          "type": "bytes"
        }
      ],
      "name": "setData",
      "outputs": [],
      "stateMutability": "nonpayable",
      "type": "function"
    },
    {
      "inputs": [
        {
          "internalType": "bytes4",
          "name": "interfaceId",
          "type": "bytes4"
        }
      ],
      "name": "supportsInterface",
      "outputs": [
        {
          "internalType": "bool",
          "name": "",
          "type": "bool"
        }
      ],
      "stateMutability": "view",
      "type": "function"
    },
    {
      "inputs": [],
      "name": "timestamp",
      "outputs": [
        {
          "internalType": "uint256",
          "name": "",
          "type": "uint256"
        }
      ],
      "stateMutability": "view",
      "type": "function"
    },
    {
      "inputs": [
        {
          "internalType": "address",
          "name": "newOwner",
          "type": "address"
        }
      ],
      "name": "transferOwnership",
      "outputs": [],
      "stateMutability": "nonpayable",
      "type": "function"
    }
  ],
  "bytecode": "0x60806040523480156200001157600080fd5b5060405162002e3e38038062002e3e833981016040819052620000349162000e97565b85806200004c81620005db60201b6200120d1760201c565b506000905084600281111562000066576200006662000fc7565b1480620000f057506040516301ffc9a760e01b81526347783b5560e11b60048201526001600160a01b038216906301ffc9a79060240160206040518083038186803b158015620000b557600080fd5b505afa158015620000ca573d6000803e3d6000fd5b505050506040513d601f19601f82011682018060405250810190620000f0919062000fdd565b6200017c5760405162461bcd60e51b815260206004820152604b60248201527f54617267657420706f73742061646472657373206d75737420737570706f727460448201527f2074686520534f4349414c5f4e4554574f524b5f504f535420696e746572666160648201526a636520284552433136352960a81b608482015260a4015b60405180910390fd5b600383511115620001e15760405162461bcd60e51b815260206004820152602860248201527f416d6f756e74206f66207461676765642075736572732069732067726561746560448201526772207468616e203360c01b606482015260840162000173565b82516002141562000290578260018151811062000202576200020262001001565b60200260200101516001600160a01b03168360008151811062000229576200022962001001565b60200260200101516001600160a01b031614156200028a5760405162461bcd60e51b815260206004820152601e60248201527f546167676564207573657273206d75737420626520646966666572656e740000604482015260640162000173565b620003eb565b825160031415620003eb5782600181518110620002b157620002b162001001565b60200260200101516001600160a01b031683600081518110620002d857620002d862001001565b60200260200101516001600160a01b0316141580156200034457508260028151811062000309576200030962001001565b60200260200101516001600160a01b03168360018151811062000330576200033062001001565b60200260200101516001600160a01b031614155b80156200039d57508260028151811062000362576200036262001001565b60200260200101516001600160a01b03168360008151811062000389576200038962001001565b60200260200101516001600160a01b031614155b620003eb5760405162461bcd60e51b815260206004820152601e60248201527f546167676564207573657273206d75737420626520646966666572656e740000604482015260640162000173565b600380546001600160a01b0387166001600160a01b03198216811783558692916001600160a81b03191617600160a01b83600281111562000430576200043062000fc7565b021790555060008460028111156200044c576200044c62000fc7565b146200045957806200045c565b60005b600480546001600160a01b0319166001600160a01b039290921691909117905542600255825160005b818110156200050357620004ef6b6737a26dc0027d9a4757000060a01b7fafd89daf17abdaf5797bc0e7d4dbdc56a217d1b6e08b426b40b8f99b9a03fc6c60001b878481518110620004db57620004db62001001565b60200260200101516200064260201b60201c565b50620004fb816200102d565b905062000485565b50604080516001600160a01b038816602082015262000556917fa0093ef0f6788cc87a372bbd12cf83ae7eeb2c85b87e43517ffd5b3978d356c991015b60408051601f1981840301815291905262000921565b60408051600060208201526001600160601b03193060601b16602c820152620005a2917f51ea539c2c3a29af57cb4b60be9d43689bfa633dba8613743d1be7fb038d36c3910162000540565b620005ce7f267100e4b0ea7c1e884866329768f0a9762ecf93ab52ada79174c067d41c4e158462000921565b50505050505050620010df565b6000546001600160a01b038281169116146200063f57600080546001600160a01b038381166001600160a01b0319831681178455604051919092169283917f8be0079c531659141344cd1fd0a4f28419497f9722a3daafe3b4186f6b6457e09190a3505b50565b6000806200065185846200093b565b90508015620006655760009150506200091a565b60405163e1fd2a0360e01b81526001600160a01b0319861660048201526001600160a01b038416602482015260009073__$2ed68bf94fb46cb586c30c069e83373029$__9063e1fd2a039060440160206040518083038186803b158015620006cc57600080fd5b505af4158015620006e1573d6000803e3d6000fd5b505050506040513d601f19601f820116820180604052508101906200070791906200104b565b90506000620007168662000a2b565b9050600080825111156200073d57818060200190518101906200073a91906200104b565b90505b60006200074c82600162001065565b9050600062000767898362000a3860201b620012a41760201c565b6040805160038082526080820190925291925060009190602082016060803683375050604080516003808252608082019092529293506000929150602082015b6060815260200190600190039081620007a75790505090508682600081518110620007d657620007d662001001565b60200260200101818152505083604051602001620007f691815260200190565b604051602081830303815290604052816000815181106200081b576200081b62001001565b60200260200101819052508a826001815181106200083d576200083d62001001565b602002602001018181525050836040516020016200085d91815260200190565b6040516020818303038152906040528160018151811062000882576200088262001001565b60200260200101819052508282600281518110620008a457620008a462001001565b60200260200101818152505089604051602001620008d191906001600160a01b0391909116815260200190565b60405160208183030381529060405281600281518110620008f657620008f662001001565b60209081029190910101526200090d828262000a6a565b6001985050505050505050505b9392505050565b6200092b62000b50565b62000937828262000bbe565b5050565b60405163e1fd2a0360e01b81526001600160a01b0319831660048201526001600160a01b0382166024820152600090819073__$2ed68bf94fb46cb586c30c069e83373029$__9063e1fd2a039060440160206040518083038186803b158015620009a457600080fd5b505af4158015620009b9573d6000803e3d6000fd5b505050506040513d601f19601f82011682018060405250810190620009df91906200104b565b90506000620009ee8262000a2b565b905080516000141562000a075760009250505062000a25565b60008180602001905181019062000a1f91906200104b565b93505050505b92915050565b606062000a258262000c0f565b60008062000a55848460801b62000cb960201b620013091760201c565b905062000a628162001080565b949350505050565b62000a7462000b50565b805182511462000ad65760405162461bcd60e51b815260206004820152602660248201527f4b657973206c656e677468206e6f7420657175616c20746f2076616c756573206044820152650d8cadccee8d60d31b606482015260840162000173565b60005b825181101562000b4b5762000b2d83828151811062000afc5762000afc62001001565b602002602001015183838151811062000b195762000b1962001001565b602002602001015162000bbe60201b60201c565b62000b438162000cf060201b620013581760201c565b905062000ad9565b505050565b3362000b646000546001600160a01b031690565b6001600160a01b03161462000bbc5760405162461bcd60e51b815260206004820181905260248201527f4f776e61626c653a2063616c6c6572206973206e6f7420746865206f776e6572604482015260640162000173565b565b6000828152600160209081526040909120825162000bdf9284019062000cf6565b5060405182907fcdf4e344c0d23d4cdd0474039d176c55b19d531070dbe17856bfb993a5b5720b90600090a25050565b600081815260016020526040902080546060919062000c2e90620010a8565b80601f016020809104026020016040519081016040528092919081815260200182805462000c5c90620010a8565b801562000cad5780601f1062000c815761010080835404028352916020019162000cad565b820191906000526020600020905b81548152906001019060200180831162000c8f57829003601f168201915b50505050509050919050565b604080516001600160801b031980851660208301528316603082015260609101604051602081830303815290604052905092915050565b60010190565b82805462000d0490620010a8565b90600052602060002090601f01602090048101928262000d28576000855562000d73565b82601f1062000d4357805160ff191683800117855562000d73565b8280016001018555821562000d73579182015b8281111562000d7357825182559160200191906001019062000d56565b5062000d8192915062000d85565b5090565b5b8082111562000d81576000815560010162000d86565b80516001600160a01b038116811462000db457600080fd5b919050565b634e487b7160e01b600052604160045260246000fd5b604051601f8201601f191681016001600160401b038111828210171562000dfa5762000dfa62000db9565b604052919050565b600082601f83011262000e1457600080fd5b81516001600160401b0381111562000e305762000e3062000db9565b602062000e46601f8301601f1916820162000dcf565b828152858284870101111562000e5b57600080fd5b60005b8381101562000e7b57858101830151828201840152820162000e5e565b8381111562000e8d5760008385840101525b5095945050505050565b60008060008060008060c0878903121562000eb157600080fd5b62000ebc8762000d9c565b9550602062000ecd81890162000d9c565b955060408801516003811062000ee257600080fd5b60608901519095506001600160401b038082111562000f0057600080fd5b818a0191508a601f83011262000f1557600080fd5b81518181111562000f2a5762000f2a62000db9565b8060051b62000f3b85820162000dcf565b918252838101850191858101908e84111562000f5657600080fd5b948601945b8386101562000f7f5762000f6f8662000d9c565b8252948601949086019062000f5b565b60808e015190995095505050508083111562000f9a57600080fd5b505062000faa89828a0162000e02565b92505062000fbb60a0880162000d9c565b90509295509295509295565b634e487b7160e01b600052602160045260246000fd5b60006020828403121562000ff057600080fd5b815180151581146200091a57600080fd5b634e487b7160e01b600052603260045260246000fd5b634e487b7160e01b600052601160045260246000fd5b600060001982141562001044576200104462001017565b5060010190565b6000602082840312156200105e57600080fd5b5051919050565b600082198211156200107b576200107b62001017565b500190565b80516020808301519190811015620010a2576000198160200360031b1b821691505b50919050565b600181811c90821680620010bd57607f821691505b60208210811415620010a257634e487b7160e01b600052602260045260246000fd5b611d4f80620010ef6000396000f3fe608060405234801561001057600080fd5b506004361061018d5760003560e01c8063888b9afe116100e3578063a9dbaf251161008c578063d1d05dae11610066578063d1d05dae1461039d578063db58ebdb146103b0578063f2fde38b146103c357600080fd5b8063a9dbaf2514610360578063b80777ea14610381578063cf6592021461038a57600080fd5b806399f71a7d116100bd57806399f71a7d146102ee578063a3c6c61214610320578063a6c3e6b91461034057600080fd5b8063888b9afe146102895780638da5cb5b1461029c57806390f88175146102db57600080fd5b806354f6127f11610145578063703eb7241161011f578063703eb7241461025b578063715018a61461026e5780637f23690c1461027657600080fd5b806354f6127f146102155780636038b7f81461023557806369d8bb181461024857600080fd5b806314a6e2931161017657806314a6e293146101cd5780634c13e9f1146101e25780634e3e6e9c146101f557600080fd5b806301ffc9a71461019257806312e423a9146101ba575b600080fd5b6101a56101a036600461161c565b6103d6565b60405190151581526020015b60405180910390f35b6101a56101c83660046116b5565b610432565b6101e06101db366004611890565b61097e565b005b6101a56101f03660046116b5565b610a71565b610208610203366004611965565b610d53565b6040516101b19190611a05565b610228610223366004611a85565b610e07565b6040516101b19190611a9e565b6101a5610243366004611ab1565b610e12565b6101a5610256366004611ab1565b610e3e565b6101e0610269366004611ab1565b610e6a565b6101e0610ec1565b6101e0610284366004611ace565b610ed5565b6101e0610297366004611ab1565b610ee7565b60005473ffffffffffffffffffffffffffffffffffffffff165b60405173ffffffffffffffffffffffffffffffffffffffff90911681526020016101b1565b6101a56102e9366004611b15565b610f3a565b6003546103139074010000000000000000000000000000000000000000900460ff1681565b6040516101b19190611b4c565b6004546102b69073ffffffffffffffffffffffffffffffffffffffff1681565b6003546102b69073ffffffffffffffffffffffffffffffffffffffff1681565b61037361036e366004611a85565b610f4f565b6040519081526020016101b1565b61037360025481565b610373610398366004611b15565b610f8e565b6101e06103ab366004611ab1565b6110b0565b6101e06103be366004611ab1565b611103565b6101e06103d1366004611ab1565b611156565b60007fffffffff0000000000000000000000000000000000000000000000000000000082167f8ef076aa00000000000000000000000000000000000000000000000000000000148061042c575061042c8261135e565b92915050565b60008061043f8584610f8e565b905080610450576000915050610977565b6040517fe1fd2a030000000000000000000000000000000000000000000000000000000081527fffffffffffffffffffffffff00000000000000000000000000000000000000008616600482015273ffffffffffffffffffffffffffffffffffffffff8416602482015260009073__$2ed68bf94fb46cb586c30c069e83373029$__9063e1fd2a039060440160206040518083038186803b1580156104f457600080fd5b505af4158015610508573d6000803e3d6000fd5b505050506040513d601f19601f8201168201806040525081019061052c9190611b8d565b9050600061053a86846112a4565b9050600061054787610e07565b80602001905181019061055a9190611b8d565b9050600061056888836112a4565b905060608060008488146107b85760408051600580825260c08201909252906020820160a0803683370190505060408051600580825260c08201909252919450816020015b60608152602001906001900390816105ad57905050915060006105cf85610e07565b8060200190518101906105e29190611ba6565b6040517fe1fd2a030000000000000000000000000000000000000000000000000000000081527fffffffffffffffffffffffff00000000000000000000000000000000000000008f16600482015273ffffffffffffffffffffffffffffffffffffffff8216602482015290915060009073__$2ed68bf94fb46cb586c30c069e83373029$__9063e1fd2a039060440160206040518083038186803b15801561068957600080fd5b505af415801561069d573d6000803e3d6000fd5b505050506040513d601f19601f820116820180604052508101906106c19190611b8d565b9050878584815181106106d6576106d6611bc3565b6020026020010181815250508160405160200161070f919073ffffffffffffffffffffffffffffffffffffffff91909116815260200190565b60405160208183030381529060405284848151811061073057610730611bc3565b60200260200101819052508261074590611c21565b92508085848151811061075a5761075a611bc3565b6020026020010181815250508960405160200161077991815260200190565b60405160208183030381529060405284848151811061079a5761079a611bc3565b6020026020010181905250826107af90611c21565b92505050610807565b6040805160038082526080820190925290602082016060803683370190505060408051600380825260808201909252919450816020015b60608152602001906001900390816107ef5790505091505b8683828151811061081a5761081a611bc3565b60209081029190910181019190915260408051600081529182019052825183908390811061084a5761084a611bc3565b60200260200101819052508061085f90611c21565b90508383828151811061087457610874611bc3565b6020908102919091018101919091526040805160008152918201905282518390839081106108a4576108a4611bc3565b6020026020010181905250806108b990611c21565b90508a8382815181106108ce576108ce611bc3565b6020026020010181815250506001851115610931576108ee600186611c5a565b60405160200161090091815260200190565b60405160208183030381529060405282828151811061092157610921611bc3565b6020026020010181905250610960565b604080516000815260208101909152825183908390811061095457610954611bc3565b60200260200101819052505b61096a838361097e565b6001985050505050505050505b9392505050565b6109866113f5565b8051825114610a1c576040517f08c379a000000000000000000000000000000000000000000000000000000000815260206004820152602660248201527f4b657973206c656e677468206e6f7420657175616c20746f2076616c7565732060448201527f6c656e677468000000000000000000000000000000000000000000000000000060648201526084015b60405180910390fd5b60005b8251811015610a6c57610a64838281518110610a3d57610a3d611bc3565b6020026020010151838381518110610a5757610a57611bc3565b6020026020010151611492565b600101610a1f565b505050565b600080610a7e8584610f8e565b90508015610a90576000915050610977565b6040517fe1fd2a030000000000000000000000000000000000000000000000000000000081527fffffffffffffffffffffffff00000000000000000000000000000000000000008616600482015273ffffffffffffffffffffffffffffffffffffffff8416602482015260009073__$2ed68bf94fb46cb586c30c069e83373029$__9063e1fd2a039060440160206040518083038186803b158015610b3457600080fd5b505af4158015610b48573d6000803e3d6000fd5b505050506040513d601f19601f82011682018060405250810190610b6c9190611b8d565b90506000610b7986610e07565b905060008082511115610b9d5781806020019051810190610b9a9190611b8d565b90505b6000610baa826001611c71565b90506000610bb889836112a4565b6040805160038082526080820190925291925060009190602082016060803683375050604080516003808252608082019092529293506000929150602082015b6060815260200190600190039081610bf85790505090508682600081518110610c2357610c23611bc3565b60200260200101818152505083604051602001610c4291815260200190565b60405160208183030381529060405281600081518110610c6457610c64611bc3565b60200260200101819052508a82600181518110610c8357610c83611bc3565b60200260200101818152505083604051602001610ca291815260200190565b60405160208183030381529060405281600181518110610cc457610cc4611bc3565b60200260200101819052508282600281518110610ce357610ce3611bc3565b60200260200101818152505089604051602001610d1c919073ffffffffffffffffffffffffffffffffffffffff91909116815260200190565b60405160208183030381529060405281600281518110610d3e57610d3e611bc3565b602002602001018190525061096a828261097e565b6060815167ffffffffffffffff811115610d6f57610d6f6116f5565b604051908082528060200260200182016040528015610da257816020015b6060815260200190600190039081610d8d5790505b50905060005b8251811015610e0157610dd3838281518110610dc657610dc6611bc3565b60200260200101516114e1565b828281518110610de557610de5611bc3565b6020026020010181905250610dfa8160010190565b9050610da8565b50919050565b606061042c826114e1565b600061042c7f1e3d423e52a0cd35309e0000000000000000000000000000000000000000000083610f3a565b600061042c7f6737a26dc0027d9a47570000000000000000000000000000000000000000000083610f3a565b610e726113f5565b610ebd7f5fd6332ee7f2fac51c23000000000000000000000000000000000000000000007f72f27ddc359c9a543c3194ffa294ca7f32bed33c7d644a22949516d73c870ad883610a71565b5050565b610ec96113f5565b610ed3600061120d565b565b610edd6113f5565b610ebd8282611492565b610eef6113f5565b610ebd7f1e3d423e52a0cd35309e000000000000000000000000000000000000000000007fd74f936d1543a0f1abf8190b00fe9837297a24c4b3d832915264e825bc3fc0c883610a71565b6000610f468383610f8e565b15159392505050565b600080610f5b83610e07565b9050805160001415610f705750600092915050565b600081806020019051810190610f869190611b8d565b949350505050565b6040517fe1fd2a030000000000000000000000000000000000000000000000000000000081527fffffffffffffffffffffffff00000000000000000000000000000000000000008316600482015273ffffffffffffffffffffffffffffffffffffffff82166024820152600090819073__$2ed68bf94fb46cb586c30c069e83373029$__9063e1fd2a039060440160206040518083038186803b15801561103457600080fd5b505af4158015611048573d6000803e3d6000fd5b505050506040513d601f19601f8201168201806040525081019061106c9190611b8d565b9050600061107982610e07565b90508051600014156110905760009250505061042c565b6000818060200190518101906110a69190611b8d565b9695505050505050565b6110b86113f5565b610ebd7f1e3d423e52a0cd35309e000000000000000000000000000000000000000000007fd74f936d1543a0f1abf8190b00fe9837297a24c4b3d832915264e825bc3fc0c883610432565b61110b6113f5565b610ebd7f9178381cc16012dc81a1000000000000000000000000000000000000000000007ff2f114f920273bcb634939f1c6afd35a362fe32c9fe59f4a8c08d77fd74280dd83610a71565b61115e6113f5565b73ffffffffffffffffffffffffffffffffffffffff8116611201576040517f08c379a000000000000000000000000000000000000000000000000000000000815260206004820152602660248201527f4f776e61626c653a206e6577206f776e657220697320746865207a65726f206160448201527f64647265737300000000000000000000000000000000000000000000000000006064820152608401610a13565b61120a8161120d565b50565b60005473ffffffffffffffffffffffffffffffffffffffff82811691161461120a576000805473ffffffffffffffffffffffffffffffffffffffff8381167fffffffffffffffffffffffff0000000000000000000000000000000000000000831681178455604051919092169283917f8be0079c531659141344cd1fd0a4f28419497f9722a3daafe3b4186f6b6457e09190a35050565b6000806112fe848460801b604080517fffffffffffffffffffffffffffffffff0000000000000000000000000000000080851660208301528316603082015260609101604051602081830303815290604052905092915050565b9050610f8681611c89565b604080517fffffffffffffffffffffffffffffffff0000000000000000000000000000000080851660208301528316603082015260609101604051602081830303815290604052905092915050565b60010190565b60007fffffffff0000000000000000000000000000000000000000000000000000000082167f714df77c00000000000000000000000000000000000000000000000000000000148061042c57507f01ffc9a7000000000000000000000000000000000000000000000000000000007fffffffff0000000000000000000000000000000000000000000000000000000083161461042c565b3361141560005473ffffffffffffffffffffffffffffffffffffffff1690565b73ffffffffffffffffffffffffffffffffffffffff1614610ed3576040517f08c379a000000000000000000000000000000000000000000000000000000000815260206004820181905260248201527f4f776e61626c653a2063616c6c6572206973206e6f7420746865206f776e65726044820152606401610a13565b600082815260016020908152604090912082516114b192840190611583565b5060405182907fcdf4e344c0d23d4cdd0474039d176c55b19d531070dbe17856bfb993a5b5720b90600090a25050565b60008181526001602052604090208054606091906114fe90611ccb565b80601f016020809104026020016040519081016040528092919081815260200182805461152a90611ccb565b80156115775780601f1061154c57610100808354040283529160200191611577565b820191906000526020600020905b81548152906001019060200180831161155a57829003601f168201915b50505050509050919050565b82805461158f90611ccb565b90600052602060002090601f0160209004810192826115b157600085556115f7565b82601f106115ca57805160ff19168380011785556115f7565b828001600101855582156115f7579182015b828111156115f75782518255916020019190600101906115dc565b50611603929150611607565b5090565b5b808211156116035760008155600101611608565b60006020828403121561162e57600080fd5b81357fffffffff000000000000000000000000000000000000000000000000000000008116811461097757600080fd5b80357fffffffffffffffffffffffff00000000000000000000000000000000000000008116811461168e57600080fd5b919050565b73ffffffffffffffffffffffffffffffffffffffff8116811461120a57600080fd5b6000806000606084860312156116ca57600080fd5b6116d38461165e565b92506020840135915060408401356116ea81611693565b809150509250925092565b7f4e487b7100000000000000000000000000000000000000000000000000000000600052604160045260246000fd5b604051601f82017fffffffffffffffffffffffffffffffffffffffffffffffffffffffffffffffe016810167ffffffffffffffff8111828210171561176b5761176b6116f5565b604052919050565b600067ffffffffffffffff82111561178d5761178d6116f5565b5060051b60200190565b600082601f8301126117a857600080fd5b813560206117bd6117b883611773565b611724565b82815260059290921b840181019181810190868411156117dc57600080fd5b8286015b848110156117f757803583529183019183016117e0565b509695505050505050565b600082601f83011261181357600080fd5b813567ffffffffffffffff81111561182d5761182d6116f5565b61185e60207fffffffffffffffffffffffffffffffffffffffffffffffffffffffffffffffe0601f84011601611724565b81815284602083860101111561187357600080fd5b816020850160208301376000918101602001919091529392505050565b600080604083850312156118a357600080fd5b823567ffffffffffffffff808211156118bb57600080fd5b6118c786838701611797565b93506020915081850135818111156118de57600080fd5b8501601f810187136118ef57600080fd5b80356118fd6117b882611773565b81815260059190911b8201840190848101908983111561191c57600080fd5b8584015b83811015611954578035868111156119385760008081fd5b6119468c8983890101611802565b845250918601918601611920565b508096505050505050509250929050565b60006020828403121561197757600080fd5b813567ffffffffffffffff81111561198e57600080fd5b610f8684828501611797565b6000815180845260005b818110156119c0576020818501810151868301820152016119a4565b818111156119d2576000602083870101525b50601f017fffffffffffffffffffffffffffffffffffffffffffffffffffffffffffffffe0169290920160200192915050565b6000602080830181845280855180835260408601915060408160051b870101925083870160005b82811015611a78577fffffffffffffffffffffffffffffffffffffffffffffffffffffffffffffffc0888603018452611a6685835161199a565b94509285019290850190600101611a2c565b5092979650505050505050565b600060208284031215611a9757600080fd5b5035919050565b602081526000610977602083018461199a565b600060208284031215611ac357600080fd5b813561097781611693565b60008060408385031215611ae157600080fd5b82359150602083013567ffffffffffffffff811115611aff57600080fd5b611b0b85828601611802565b9150509250929050565b60008060408385031215611b2857600080fd5b611b318361165e565b91506020830135611b4181611693565b809150509250929050565b6020810160038310611b87577f4e487b7100000000000000000000000000000000000000000000000000000000600052602160045260246000fd5b91905290565b600060208284031215611b9f57600080fd5b5051919050565b600060208284031215611bb857600080fd5b815161097781611693565b7f4e487b7100000000000000000000000000000000000000000000000000000000600052603260045260246000fd5b7f4e487b7100000000000000000000000000000000000000000000000000000000600052601160045260246000fd5b60007fffffffffffffffffffffffffffffffffffffffffffffffffffffffffffffffff821415611c5357611c53611bf2565b5060010190565b600082821015611c6c57611c6c611bf2565b500390565b60008219821115611c8457611c84611bf2565b500190565b80516020808301519190811015610e01577fffffffffffffffffffffffffffffffffffffffffffffffffffffffffffffffff60209190910360031b1b16919050565b600181811c90821680611cdf57607f821691505b60208210811415610e01577f4e487b7100000000000000000000000000000000000000000000000000000000600052602260045260246000fdfea2646970667358221220dbe2ec5990fe3b9e4aad27060abd7862b393e84e3660e2e5d3246fa97eed231564736f6c63430008090033",
  "linkReferences": {
    "contracts/LSP2KeyUtil.sol": {
      "LSP2KeyUtil": [
        {
          "length": 20,
          "start": 1686
        },
        {
          "length": 20,
          "start": 2414
        },
        {
          "length": 20,
          "start": 5550
        },
        {
          "length": 20,
          "start": 5955
        },
        {
          "length": 20,
          "start": 7150
        },
        {
          "length": 20,
          "start": 8430
        }
      ]
    }
  },
  "deployedLinkReferences": {
    "contracts/LSP2KeyUtil.sol": {
      "LSP2KeyUtil": [
        {
          "length": 20,
          "start": 1215
        },
        {
          "length": 20,
          "start": 1620
        },
        {
          "length": 20,
          "start": 2815
        },
        {
          "length": 20,
          "start": 4095
        }
      ]
    }
  }
}