{
  "_format": "hh-sol-artifact-1",
  "contractName": "SocialNetwork",
  "sourceName": "contracts/SocialNetwork.sol",
  "abi": [
    {
      "inputs": [
        {
          "internalType": "bytes",
          "name": "_LSP4MetadataJSONURL",
          "type": "bytes"
        }
      ],
      "stateMutability": "nonpayable",
      "type": "constructor"
    },
    {
      "inputs": [],
      "name": "LSP4TokenNameNotEditable",
      "type": "error"
    },
    {
      "inputs": [],
      "name": "LSP4TokenSymbolNotEditable",
      "type": "error"
    },
    {
      "inputs": [],
      "name": "LSP8CannotSendToAddressZero",
      "type": "error"
    },
    {
      "inputs": [],
      "name": "LSP8CannotUseAddressZeroAsOperator",
      "type": "error"
    },
    {
      "inputs": [],
      "name": "LSP8InvalidTransferBatch",
      "type": "error"
    },
    {
      "inputs": [
        {
          "internalType": "bytes32",
          "name": "tokenId",
          "type": "bytes32"
        }
      ],
      "name": "LSP8NonExistentTokenId",
      "type": "error"
    },
    {
      "inputs": [
        {
          "internalType": "bytes32",
          "name": "tokenId",
          "type": "bytes32"
        },
        {
          "internalType": "address",
          "name": "caller",
          "type": "address"
        }
      ],
      "name": "LSP8NotTokenOperator",
      "type": "error"
    },
    {
      "inputs": [
        {
          "internalType": "address",
          "name": "tokenOwner",
          "type": "address"
        },
        {
          "internalType": "bytes32",
          "name": "tokenId",
          "type": "bytes32"
        },
        {
          "internalType": "address",
          "name": "caller",
          "type": "address"
        }
      ],
      "name": "LSP8NotTokenOwner",
      "type": "error"
    },
    {
      "inputs": [
        {
          "internalType": "address",
          "name": "tokenReceiver",
          "type": "address"
        }
      ],
      "name": "LSP8NotifyTokenReceiverContractMissingLSP1Interface",
      "type": "error"
    },
    {
      "inputs": [
        {
          "internalType": "address",
          "name": "tokenReceiver",
          "type": "address"
        }
      ],
      "name": "LSP8NotifyTokenReceiverIsEOA",
      "type": "error"
    },
    {
      "inputs": [
        {
          "internalType": "bytes32",
          "name": "tokenId",
          "type": "bytes32"
        }
      ],
      "name": "LSP8TokenIdAlreadyMinted",
      "type": "error"
    },
    {
      "anonymous": false,
      "inputs": [
        {
          "indexed": true,
          "internalType": "address",
          "name": "operator",
          "type": "address"
        },
        {
          "indexed": true,
          "internalType": "address",
          "name": "tokenOwner",
          "type": "address"
        },
        {
          "indexed": true,
          "internalType": "bytes32",
          "name": "tokenId",
          "type": "bytes32"
        }
      ],
      "name": "AuthorizedOperator",
      "type": "event"
    },
    {
      "anonymous": false,
      "inputs": [
        {
          "indexed": true,
          "internalType": "bytes32",
          "name": "dataKey",
          "type": "bytes32"
        }
      ],
      "name": "DataChanged",
      "type": "event"
    },
    {
      "anonymous": false,
      "inputs": [
        {
          "indexed": true,
          "internalType": "address",
          "name": "previousOwner",
          "type": "address"
        },
        {
          "indexed": true,
          "internalType": "address",
          "name": "newOwner",
          "type": "address"
        }
      ],
      "name": "OwnershipTransferred",
      "type": "event"
    },
    {
      "anonymous": false,
      "inputs": [
        {
          "indexed": true,
          "internalType": "address",
          "name": "operator",
          "type": "address"
        },
        {
          "indexed": true,
          "internalType": "address",
          "name": "tokenOwner",
          "type": "address"
        },
        {
          "indexed": true,
          "internalType": "bytes32",
          "name": "tokenId",
          "type": "bytes32"
        }
      ],
      "name": "RevokedOperator",
      "type": "event"
    },
    {
      "anonymous": false,
      "inputs": [
        {
          "indexed": false,
          "internalType": "address",
          "name": "operator",
          "type": "address"
        },
        {
          "indexed": true,
          "internalType": "address",
          "name": "from",
          "type": "address"
        },
        {
          "indexed": true,
          "internalType": "address",
          "name": "to",
          "type": "address"
        },
        {
          "indexed": true,
          "internalType": "bytes32",
          "name": "tokenId",
          "type": "bytes32"
        },
        {
          "indexed": false,
          "internalType": "bool",
          "name": "force",
          "type": "bool"
        },
        {
          "indexed": false,
          "internalType": "bytes",
          "name": "data",
          "type": "bytes"
        }
      ],
      "name": "Transfer",
      "type": "event"
    },
    {
      "anonymous": false,
      "inputs": [
        {
          "indexed": true,
          "internalType": "enum SocialNetworkPostType",
          "name": "postType",
          "type": "uint8"
        },
        {
          "indexed": true,
          "internalType": "address",
          "name": "user",
          "type": "address"
        },
        {
          "indexed": true,
          "internalType": "address",
          "name": "targetPost",
          "type": "address"
        },
        {
          "indexed": false,
          "internalType": "address",
          "name": "newPost",
          "type": "address"
        },
        {
          "indexed": false,
          "internalType": "uint256",
          "name": "timestamp",
          "type": "uint256"
        }
      ],
      "name": "UserCreatedPost",
      "type": "event"
    },
    {
      "anonymous": false,
      "inputs": [
        {
          "indexed": true,
          "internalType": "address",
          "name": "user",
          "type": "address"
        },
        {
          "indexed": true,
          "internalType": "address",
          "name": "targetPost",
          "type": "address"
        },
        {
          "indexed": false,
          "internalType": "uint256",
          "name": "timestamp",
          "type": "uint256"
        }
      ],
      "name": "UserLikedPost",
      "type": "event"
    },
    {
      "anonymous": false,
      "inputs": [
        {
          "indexed": true,
          "internalType": "address",
          "name": "user",
          "type": "address"
        },
        {
          "indexed": true,
          "internalType": "address",
          "name": "socialProfileData",
          "type": "address"
        },
        {
          "indexed": true,
          "internalType": "uint256",
          "name": "userNumber",
          "type": "uint256"
        },
        {
          "indexed": false,
          "internalType": "uint256",
          "name": "timestamp",
          "type": "uint256"
        }
      ],
      "name": "UserRegistered",
      "type": "event"
    },
    {
      "anonymous": false,
      "inputs": [
        {
          "indexed": true,
          "internalType": "address",
          "name": "user",
          "type": "address"
        },
        {
          "indexed": true,
          "internalType": "address",
          "name": "targetUser",
          "type": "address"
        },
        {
          "indexed": false,
          "internalType": "uint256",
          "name": "timestamp",
          "type": "uint256"
        }
      ],
      "name": "UserSubscribedUser",
      "type": "event"
    },
    {
      "anonymous": false,
      "inputs": [
        {
          "indexed": true,
          "internalType": "address",
          "name": "user",
          "type": "address"
        },
        {
          "indexed": true,
          "internalType": "address",
          "name": "newPost",
          "type": "address"
        },
        {
          "indexed": true,
          "internalType": "address",
          "name": "targetUser",
          "type": "address"
        },
        {
          "indexed": false,
          "internalType": "uint256",
          "name": "timestamp",
          "type": "uint256"
        }
      ],
      "name": "UserTaggedUserInPost",
      "type": "event"
    },
    {
      "anonymous": false,
      "inputs": [
        {
          "indexed": true,
          "internalType": "address",
          "name": "user",
          "type": "address"
        },
        {
          "indexed": true,
          "internalType": "address",
          "name": "targetPost",
          "type": "address"
        },
        {
          "indexed": false,
          "internalType": "uint256",
          "name": "timestamp",
          "type": "uint256"
        }
      ],
      "name": "UserUnlikedPost",
      "type": "event"
    },
    {
      "anonymous": false,
      "inputs": [
        {
          "indexed": true,
          "internalType": "address",
          "name": "user",
          "type": "address"
        },
        {
          "indexed": true,
          "internalType": "address",
          "name": "targetUser",
          "type": "address"
        },
        {
          "indexed": false,
          "internalType": "uint256",
          "name": "timestamp",
          "type": "uint256"
        }
      ],
      "name": "UserUnsubscribedUser",
      "type": "event"
    },
    {
      "inputs": [
        {
          "internalType": "address",
          "name": "operator",
          "type": "address"
        },
        {
          "internalType": "bytes32",
          "name": "tokenId",
          "type": "bytes32"
        }
      ],
      "name": "authorizeOperator",
      "outputs": [],
      "stateMutability": "nonpayable",
      "type": "function"
    },
    {
      "inputs": [
        {
          "internalType": "address",
          "name": "tokenOwner",
          "type": "address"
        }
      ],
      "name": "balanceOf",
      "outputs": [
        {
          "internalType": "uint256",
          "name": "",
          "type": "uint256"
        }
      ],
      "stateMutability": "view",
      "type": "function"
    },
    {
      "inputs": [
        {
          "internalType": "bytes",
          "name": "_data",
          "type": "bytes"
        },
        {
          "internalType": "address[]",
          "name": "_taggedUsers",
          "type": "address[]"
        },
        {
          "internalType": "address",
          "name": "_targetPost",
          "type": "address"
        }
      ],
      "name": "commentPost",
      "outputs": [
        {
          "internalType": "address",
          "name": "",
          "type": "address"
        }
      ],
      "stateMutability": "nonpayable",
      "type": "function"
    },
    {
      "inputs": [
        {
          "internalType": "bytes",
          "name": "_data",
          "type": "bytes"
        },
        {
          "internalType": "address[]",
          "name": "_taggedUsers",
          "type": "address[]"
        }
      ],
      "name": "createPost",
      "outputs": [
        {
          "internalType": "address",
          "name": "",
          "type": "address"
        }
      ],
      "stateMutability": "nonpayable",
      "type": "function"
    },
    {
      "inputs": [
        {
          "internalType": "bytes32[]",
          "name": "dataKeys",
          "type": "bytes32[]"
        }
      ],
      "name": "getData",
      "outputs": [
        {
          "internalType": "bytes[]",
          "name": "dataValues",
          "type": "bytes[]"
        }
      ],
      "stateMutability": "view",
      "type": "function"
    },
    {
      "inputs": [
        {
          "internalType": "bytes32",
          "name": "dataKey",
          "type": "bytes32"
        }
      ],
      "name": "getData",
      "outputs": [
        {
          "internalType": "bytes",
          "name": "dataValue",
          "type": "bytes"
        }
      ],
      "stateMutability": "view",
      "type": "function"
    },
    {
      "inputs": [
        {
          "internalType": "bytes32",
          "name": "tokenId",
          "type": "bytes32"
        }
      ],
      "name": "getOperatorsOf",
      "outputs": [
        {
          "internalType": "address[]",
          "name": "",
          "type": "address[]"
        }
      ],
      "stateMutability": "view",
      "type": "function"
    },
    {
      "inputs": [
        {
          "internalType": "address",
          "name": "operator",
          "type": "address"
        },
        {
          "internalType": "bytes32",
          "name": "tokenId",
          "type": "bytes32"
        }
      ],
      "name": "isOperatorFor",
      "outputs": [
        {
          "internalType": "bool",
          "name": "",
          "type": "bool"
        }
      ],
      "stateMutability": "view",
      "type": "function"
    },
    {
      "inputs": [
        {
          "internalType": "address",
          "name": "_post",
          "type": "address"
        }
      ],
      "name": "likePost",
      "outputs": [],
      "stateMutability": "nonpayable",
      "type": "function"
    },
    {
      "inputs": [],
      "name": "owner",
      "outputs": [
        {
          "internalType": "address",
          "name": "",
          "type": "address"
        }
      ],
      "stateMutability": "view",
      "type": "function"
    },
    {
      "inputs": [],
      "name": "register",
      "outputs": [
        {
          "internalType": "address",
          "name": "",
          "type": "address"
        }
      ],
      "stateMutability": "nonpayable",
      "type": "function"
    },
    {
      "inputs": [],
      "name": "registeredUserCount",
      "outputs": [
        {
          "internalType": "uint256",
          "name": "",
          "type": "uint256"
        }
      ],
      "stateMutability": "view",
      "type": "function"
    },
    {
      "inputs": [
        {
          "internalType": "address",
          "name": "",
          "type": "address"
        }
      ],
      "name": "registeredUsers",
      "outputs": [
        {
          "internalType": "address",
          "name": "",
          "type": "address"
        }
      ],
      "stateMutability": "view",
      "type": "function"
    },
    {
      "inputs": [],
      "name": "renounceOwnership",
      "outputs": [],
      "stateMutability": "nonpayable",
      "type": "function"
    },
    {
      "inputs": [
        {
          "internalType": "address",
          "name": "operator",
          "type": "address"
        },
        {
          "internalType": "bytes32",
          "name": "tokenId",
          "type": "bytes32"
        }
      ],
      "name": "revokeOperator",
      "outputs": [],
      "stateMutability": "nonpayable",
      "type": "function"
    },
    {
      "inputs": [
        {
          "internalType": "bytes32[]",
          "name": "dataKeys",
          "type": "bytes32[]"
        },
        {
          "internalType": "bytes[]",
          "name": "dataValues",
          "type": "bytes[]"
        }
      ],
      "name": "setData",
      "outputs": [],
      "stateMutability": "nonpayable",
      "type": "function"
    },
    {
      "inputs": [
        {
          "internalType": "bytes32",
          "name": "dataKey",
          "type": "bytes32"
        },
        {
          "internalType": "bytes",
          "name": "dataValue",
          "type": "bytes"
        }
      ],
      "name": "setData",
      "outputs": [],
      "stateMutability": "nonpayable",
      "type": "function"
    },
    {
      "inputs": [
        {
          "internalType": "bytes",
          "name": "_data",
          "type": "bytes"
        },
        {
          "internalType": "address[]",
          "name": "_taggedUsers",
          "type": "address[]"
        },
        {
          "internalType": "address",
          "name": "_targetPost",
          "type": "address"
        }
      ],
      "name": "sharePost",
      "outputs": [
        {
          "internalType": "address",
          "name": "",
          "type": "address"
        }
      ],
      "stateMutability": "nonpayable",
      "type": "function"
    },
    {
      "inputs": [
        {
          "internalType": "address",
          "name": "_user",
          "type": "address"
        }
      ],
      "name": "subscribeUser",
      "outputs": [],
      "stateMutability": "nonpayable",
      "type": "function"
    },
    {
      "inputs": [
        {
          "internalType": "bytes4",
          "name": "interfaceId",
          "type": "bytes4"
        }
      ],
      "name": "supportsInterface",
      "outputs": [
        {
          "internalType": "bool",
          "name": "",
          "type": "bool"
        }
      ],
      "stateMutability": "view",
      "type": "function"
    },
    {
      "inputs": [
        {
          "internalType": "address",
          "name": "tokenOwner",
          "type": "address"
        }
      ],
      "name": "tokenIdsOf",
      "outputs": [
        {
          "internalType": "bytes32[]",
          "name": "",
          "type": "bytes32[]"
        }
      ],
      "stateMutability": "view",
      "type": "function"
    },
    {
      "inputs": [
        {
          "internalType": "bytes32",
          "name": "tokenId",
          "type": "bytes32"
        }
      ],
      "name": "tokenOwnerOf",
      "outputs": [
        {
          "internalType": "address",
          "name": "",
          "type": "address"
        }
      ],
      "stateMutability": "view",
      "type": "function"
    },
    {
      "inputs": [],
      "name": "totalSupply",
      "outputs": [
        {
          "internalType": "uint256",
          "name": "",
          "type": "uint256"
        }
      ],
      "stateMutability": "view",
      "type": "function"
    },
    {
      "inputs": [
        {
          "internalType": "address",
          "name": "from",
          "type": "address"
        },
        {
          "internalType": "address",
          "name": "to",
          "type": "address"
        },
        {
          "internalType": "bytes32",
          "name": "tokenId",
          "type": "bytes32"
        },
        {
          "internalType": "bool",
          "name": "force",
          "type": "bool"
        },
        {
          "internalType": "bytes",
          "name": "data",
          "type": "bytes"
        }
      ],
      "name": "transfer",
      "outputs": [],
      "stateMutability": "nonpayable",
      "type": "function"
    },
    {
      "inputs": [
        {
          "internalType": "address[]",
          "name": "from",
          "type": "address[]"
        },
        {
          "internalType": "address[]",
          "name": "to",
          "type": "address[]"
        },
        {
          "internalType": "bytes32[]",
          "name": "tokenId",
          "type": "bytes32[]"
        },
        {
          "internalType": "bool",
          "name": "force",
          "type": "bool"
        },
        {
          "internalType": "bytes[]",
          "name": "data",
          "type": "bytes[]"
        }
      ],
      "name": "transferBatch",
      "outputs": [],
      "stateMutability": "nonpayable",
      "type": "function"
    },
    {
      "inputs": [
        {
          "internalType": "address",
          "name": "newOwner",
          "type": "address"
        }
      ],
      "name": "transferOwnership",
      "outputs": [],
      "stateMutability": "nonpayable",
      "type": "function"
    },
    {
      "inputs": [
        {
          "internalType": "address",
          "name": "_post",
          "type": "address"
        }
      ],
      "name": "unlikePost",
      "outputs": [],
      "stateMutability": "nonpayable",
      "type": "function"
    },
    {
      "inputs": [
        {
          "internalType": "address",
          "name": "_user",
          "type": "address"
        }
      ],
      "name": "unsubscribeUser",
      "outputs": [],
      "stateMutability": "nonpayable",
      "type": "function"
    }
  ],
  "bytecode": "0x608060405260006007553480156200001657600080fd5b50604051620050be380380620050be833981016040819052620000399162000453565b6040518060400160405280601381526020017f536f6369616c204e6574776f726b20506f737400000000000000000000000000815250604051806040016040528060038152602001620534e560ec1b8152503382828280620000a681620001db60201b62002e191760201c565b50620000fd7feafec4d89fa9619884b60000a4d96624a38f7ac2d8d9a604ecf07c12c77e480c60001b604051806040016040528060048152602001632936598960e21b8152506200024260201b62002e961760201c565b620001266000805160206200507e83398151915260001b846200024260201b62002e961760201c565b6200014f6000805160206200509e83398151915260001b836200024260201b62002e961760201c565b505050505050620001a87f715f248956de7ce65e94d9d836bfead479f7e70d69b718d47bfe7b00e05b4fe460001b60016040516020016200019291815260200190565b60408051601f1981840301815291905262000293565b620001d47f9afb95cacc9f95858ec44aa8c3b685511002e30ae54415823f406128b85b238e8262000293565b506200056c565b6000546001600160a01b038281169116146200023f57600080546001600160a01b038381166001600160a01b0319831681178455604051919092169283917f8be0079c531659141344cd1fd0a4f28419497f9722a3daafe3b4186f6b6457e09190a3505b50565b60008281526001602090815260409091208251620002639284019062000397565b5060405182907fcdf4e344c0d23d4cdd0474039d176c55b19d531070dbe17856bfb993a5b5720b90600090a25050565b6200029d620002ad565b620002a982826200031e565b5050565b33620002c16000546001600160a01b031690565b6001600160a01b0316146200031c5760405162461bcd60e51b815260206004820181905260248201527f4f776e61626c653a2063616c6c6572206973206e6f7420746865206f776e6572604482015260640160405180910390fd5b565b6000805160206200507e8339815191528214156200034f576040516385c169bd60e01b815260040160405180910390fd5b6000805160206200509e8339815191528214156200038057604051630eceab6760e31b815260040160405180910390fd5b620002a982826200024260201b62002e961760201c565b828054620003a5906200052f565b90600052602060002090601f016020900481019282620003c9576000855562000414565b82601f10620003e457805160ff191683800117855562000414565b8280016001018555821562000414579182015b8281111562000414578251825591602001919060010190620003f7565b506200042292915062000426565b5090565b5b8082111562000422576000815560010162000427565b634e487b7160e01b600052604160045260246000fd5b600060208083850312156200046757600080fd5b82516001600160401b03808211156200047f57600080fd5b818501915085601f8301126200049457600080fd5b815181811115620004a957620004a96200043d565b604051601f8201601f19908116603f01168101908382118183101715620004d457620004d46200043d565b816040528281528886848701011115620004ed57600080fd5b600093505b82841015620005115784840186015181850187015292850192620004f2565b82841115620005235760008684830101525b98975050505050505050565b600181811c908216806200054457607f821691505b602082108114156200056657634e487b7160e01b600052602260045260246000fd5b50919050565b614b02806200057c6000396000f3fe608060405234801561001057600080fd5b50600436106101c45760003560e01c806365c12877116100f9578063b2fd625c11610097578063e7c4ece511610071578063e7c4ece5146103e7578063f0e7a43c146103fa578063f2fde38b1461040d578063fc7200311461042057600080fd5b8063b2fd625c146103b8578063cb3d0564146103cb578063cf5182ba146103d457600080fd5b80637659c8c9116100d35780637659c8c9146103615780637f23690c146103745780638da5cb5b14610387578063a3b261f21461039857600080fd5b806365c128771461033357806370a0823114610346578063715018a61461035957600080fd5b8063217b2270116101665780634e3e6e9c116101405780634e3e6e9c146102cd578063511b6952146102ed57806354f6127f14610300578063559088681461032057600080fd5b8063217b2270146102875780632a3654a41461029a57806349a6078d146102ad57600080fd5b80630e50cee5116101a25780630e50cee51461021957806314a6e2931461025a57806318160ddd1461026d5780631aa3a0081461027f57600080fd5b806301ffc9a7146101c957806302397a82146101f15780630b0c6d8214610206575b600080fd5b6101dc6101d7366004613eb4565b610433565b60405190151581526020015b60405180910390f35b6102046101ff366004613f0b565b61048f565b005b610204610214366004613f28565b610a59565b610242610227366004613f0b565b6006602052600090815260409020546001600160a01b031681565b6040516001600160a01b0390911681526020016101e8565b61020461026836600461413c565b610b34565b6002545b6040519081526020016101e8565b610242610c08565b6102426102953660046141a0565b61106b565b6101dc6102a8366004613f28565b6110bd565b6102c06102bb3660046141a0565b6110d9565b6040516101e891906141b9565b6102e06102db366004614206565b6110fb565b6040516101e89190614293565b6102046102fb366004614321565b6111af565b61031361030e3660046141a0565b611217565b6040516101e891906143a0565b61020461032e366004614417565b611222565b61024261034136600461455a565b611308565b610271610354366004613f0b565b611859565b61020461187a565b61020461036f366004613f0b565b61188e565b6102046103823660046145de565b611bfc565b6000546001600160a01b0316610242565b6103ab6103a6366004613f0b565b611c12565b6040516101e8919061461b565b6102426103c6366004614653565b611c36565b61027160075481565b6102046103e2366004613f28565b611e74565b6102046103f5366004613f0b565b611f9e565b610204610408366004613f0b565b612555565b61020461041b366004613f0b565b6128b7565b61024261042e36600461455a565b612947565b60007fffffffff0000000000000000000000000000000000000000000000000000000082167f52ae1080000000000000000000000000000000000000000000000000000000001480610489575061048982612ee5565b92915050565b336000818152600660205260409020546001600160a01b03166104f95760405162461bcd60e51b815260206004820152601e60248201527f557365722061646472657373206973206e6f742072656769737465726564000060448201526064015b60405180910390fd5b6040517f01ffc9a70000000000000000000000000000000000000000000000000000000081527f8ef076aa00000000000000000000000000000000000000000000000000000000600482015282906001600160a01b038216906301ffc9a79060240160206040518083038186803b15801561057357600080fd5b505afa158015610587573d6000803e3d6000fd5b505050506040513d601f19601f820116820180604052508101906105ab91906146bf565b6106435760405162461bcd60e51b815260206004820152605860248201527f506f73742061646472657373206973206e6f7420706f696e74696e6720746f2060448201527f612076616c696420706f73742028536f6369616c4e6574776f726b506f73742060648201527f696e74657266616365206e6f7420617661696c61626c65290000000000000000608482015260a4016104f0565b306001600160a01b0316816001600160a01b0316638da5cb5b6040518163ffffffff1660e01b815260040160206040518083038186803b15801561068657600080fd5b505afa15801561069a573d6000803e3d6000fd5b505050506040513d601f19601f820116820180604052508101906106be91906146dc565b6001600160a01b0316146107615760405162461bcd60e51b8152602060048201526044602482018190527f506f73742061646472657373206973206e6f74206f776e656420627920637572908201527f72656e7420536f6369616c4e6574776f726b20636f6e747261637420696e737460648201527f616e636500000000000000000000000000000000000000000000000000000000608482015260a4016104f0565b3383806001600160a01b031663a6c3e6b96040518163ffffffff1660e01b815260040160206040518083038186803b15801561079c57600080fd5b505afa1580156107b0573d6000803e3d6000fd5b505050506040513d601f19601f820116820180604052508101906107d491906146dc565b6001600160a01b0316826001600160a01b031614156108355760405162461bcd60e51b815260206004820181905260248201527f55736572206d757374206e6f742062652074686520706f737420617574686f7260448201526064016104f0565b6040517f6038b7f800000000000000000000000000000000000000000000000000000000815233600482018190529086906001600160a01b03821690636038b7f89060240160206040518083038186803b15801561089257600080fd5b505afa1580156108a6573d6000803e3d6000fd5b505050506040513d601f19601f820116820180604052508101906108ca91906146bf565b156109175760405162461bcd60e51b815260206004820152601f60248201527f557365722068617320616c7265616479206c696b65642074686520706f73740060448201526064016104f0565b6040517f888b9afe0000000000000000000000000000000000000000000000000000000081523360048201526001600160a01b0388169063888b9afe90602401600060405180830381600087803b15801561097157600080fd5b505af1158015610985573d6000803e3d6000fd5b505033600090815260066020526040908190205490517f888b9afe0000000000000000000000000000000000000000000000000000000081526001600160a01b038b81166004830152909116925063888b9afe9150602401600060405180830381600087803b1580156109f757600080fd5b505af1158015610a0b573d6000803e3d6000fd5b50506040514281526001600160a01b038a1692503391507f876663551057bbf491fadeab49176312ba3c80adb2edaaabbe66a39b8b41e986906020015b60405180910390a350505050505050565b6000610a648261106b565b9050336001600160a01b0382168114610ac3576040517f5b271ea20000000000000000000000000000000000000000000000000000000081526001600160a01b03808416600483015260248201859052821660448201526064016104f0565b6001600160a01b038416610b03576040517f9577b8b300000000000000000000000000000000000000000000000000000000815260040160405180910390fd5b836001600160a01b0316826001600160a01b03161415610b235750505050565b610b2e848385612f3b565b50505050565b610b3c612f9a565b8051825114610bb35760405162461bcd60e51b815260206004820152602660248201527f4b657973206c656e677468206e6f7420657175616c20746f2076616c7565732060448201527f6c656e677468000000000000000000000000000000000000000000000000000060648201526084016104f0565b60005b8251811015610c0357610bfb838281518110610bd457610bd46146f9565b6020026020010151838381518110610bee57610bee6146f9565b6020026020010151613003565b600101610bb6565b505050565b336000908152600660205260408120546001600160a01b031615610c945760405162461bcd60e51b815260206004820152602260248201527f55736572206164647265737320697320616c726561647920726567697374657260448201527f656400000000000000000000000000000000000000000000000000000000000060648201526084016104f0565b333b610d2e5760405162461bcd60e51b815260206004820152604960248201527f55736572206164647265737320697320616e20454f41202d204f6e6c7920736d60448201527f61727420636f6e7472616374206261736564206163636f756e7473206172652060648201527f737570706f727465640000000000000000000000000000000000000000000000608482015260a4016104f0565b6040517f01ffc9a70000000000000000000000000000000000000000000000000000000081527f714df77c00000000000000000000000000000000000000000000000000000000600482015233906301ffc9a79060240160206040518083038186803b158015610d9d57600080fd5b505afa158015610db1573d6000803e3d6000fd5b505050506040513d601f19601f82011682018060405250810190610dd591906146bf565b8015610e8357506040517f01ffc9a70000000000000000000000000000000000000000000000000000000081527f44c028fe00000000000000000000000000000000000000000000000000000000600482015233906301ffc9a79060240160206040518083038186803b158015610e4b57600080fd5b505afa158015610e5f573d6000803e3d6000fd5b505050506040513d601f19601f82011682018060405250810190610e8391906146bf565b610f1b5760405162461bcd60e51b815260206004820152605a60248201527f557365722061646472657373206973206e6f7420616e20756e6976657273616c60448201527f2070726f66696c6520284552433732355820616e642f6f72204552433732355960648201527f20696e7465726661636573206e6f7420617661696c61626c6529000000000000608482015260a4016104f0565b600760008154610f2a90614757565b909155506040517f5be9890400000000000000000000000000000000000000000000000000000000815230600482015233602482015273__$e1e9acb8cf0b7d9dd541aed3de0dc7916c$__90635be989049060440160206040518083038186803b158015610f9757600080fd5b505af4158015610fab573d6000803e3d6000fd5b505050506040513d601f19601f82011682018060405250810190610fcf91906146dc565b3360008181526006602090815260409182902080547fffffffffffffffffffffffff0000000000000000000000000000000000000000166001600160a01b039590951694851790556007549151428152919392917fb626e6cc43dfdcd60d2e41d199e03d0c90c4c7bb5c76193c8d6c31b88217f96c910160405180910390a450336000908152600660205260409020546001600160a01b031690565b6000818152600360205260408120546001600160a01b031680610489576040517fae8f9a36000000000000000000000000000000000000000000000000000000008152600481018490526024016104f0565b60006110c8826130c1565b6110d28383613112565b9392505050565b60606110e4826130c1565b60008281526005602052604090206104899061315b565b6060815167ffffffffffffffff81111561111757611117613f54565b60405190808252806020026020018201604052801561114a57816020015b60608152602001906001900390816111355790505b50905060005b82518110156111a95761117b83828151811061116e5761116e6146f9565b6020026020010151613168565b82828151811061118d5761118d6146f9565b60200260200101819052506111a28160010190565b9050611150565b50919050565b336111ba8185613112565b611202576040517f1294d2a9000000000000000000000000000000000000000000000000000000008152600481018590526001600160a01b03821660248201526044016104f0565b61120f868686868661320a565b505050505050565b606061048982613168565b8351855114158061123557508251855114155b8061124257508051855114155b15611279576040517f93a8311900000000000000000000000000000000000000000000000000000000815260040160405180910390fd5b60005b855181101561120f576112f686828151811061129a5761129a6146f9565b60200260200101518683815181106112b4576112b46146f9565b60200260200101518684815181106112ce576112ce6146f9565b6020026020010151868686815181106112e9576112e96146f9565b60200260200101516111af565b8061130081614757565b91505061127c565b336000818152600660205260408120549091906001600160a01b03166113705760405162461bcd60e51b815260206004820152601e60248201527f557365722061646472657373206973206e6f742072656769737465726564000060448201526064016104f0565b6040517f01ffc9a70000000000000000000000000000000000000000000000000000000081527f8ef076aa00000000000000000000000000000000000000000000000000000000600482015283906001600160a01b038216906301ffc9a79060240160206040518083038186803b1580156113ea57600080fd5b505afa1580156113fe573d6000803e3d6000fd5b505050506040513d601f19601f8201168201806040525081019061142291906146bf565b6114ba5760405162461bcd60e51b815260206004820152605860248201527f506f73742061646472657373206973206e6f7420706f696e74696e6720746f2060448201527f612076616c696420706f73742028536f6369616c4e6574776f726b506f73742060648201527f696e74657266616365206e6f7420617661696c61626c65290000000000000000608482015260a4016104f0565b306001600160a01b0316816001600160a01b0316638da5cb5b6040518163ffffffff1660e01b815260040160206040518083038186803b1580156114fd57600080fd5b505afa158015611511573d6000803e3d6000fd5b505050506040513d601f19601f8201168201806040525081019061153591906146dc565b6001600160a01b0316146115d85760405162461bcd60e51b8152602060048201526044602482018190527f506f73742061646472657373206973206e6f74206f776e656420627920637572908201527f72656e7420536f6369616c4e6574776f726b20636f6e747261637420696e737460648201527f616e636500000000000000000000000000000000000000000000000000000000608482015260a4016104f0565b6040517fdc2dde3d00000000000000000000000000000000000000000000000000000000815260009073__$166ae69d81e0c2a85c28a3b44767a780af$__9063dc2dde3d9061163790309033908e908e908e908e908e90600401614804565b60206040518083038186803b15801561164f57600080fd5b505af4158015611663573d6000803e3d6000fd5b505050506040513d601f19601f8201168201806040525081019061168791906146dc565b60408051600060208201527fffffffffffffffffffffffffffffffffffffffff000000000000000000000000606084901b16602c8201529192506116f8913391015b6040516020818303038152906040526116e19061485b565b6000604051806020016040528060008152506133c0565b6040517fdb58ebdb0000000000000000000000000000000000000000000000000000000081526001600160a01b03828116600483015286169063db58ebdb90602401600060405180830381600087803b15801561175457600080fd5b505af1158015611768573d6000803e3d6000fd5b505033600090815260066020526040908190205490517f3ff754420000000000000000000000000000000000000000000000000000000081526001600160a01b0385811660048301529091169250633ff754429150602401600060405180830381600087803b1580156117da57600080fd5b505af11580156117ee573d6000803e3d6000fd5b5050506001600160a01b03861690503360015b604080516001600160a01b03861681524260208201527f06f095ada26821e903889ee7afb234766ef8aa5eeac88a0a139f40fbdbfe4833910160405180910390a461184d818888613518565b98975050505050505050565b6001600160a01b038116600090815260046020526040812061048990613564565b611882612f9a565b61188c6000612e19565b565b336000818152600660205260409020546001600160a01b03166118f35760405162461bcd60e51b815260206004820152601e60248201527f557365722061646472657373206973206e6f742072656769737465726564000060448201526064016104f0565b6001600160a01b0380831660009081526006602052604090205483911661195c5760405162461bcd60e51b815260206004820152601e60248201527f557365722061646472657373206973206e6f742072656769737465726564000060448201526064016104f0565b33836001600160a01b0381168214156119b75760405162461bcd60e51b815260206004820152601760248201527f5573657273206d75737420626520646966666572656e7400000000000000000060448201526064016104f0565b6001600160a01b03828116600090815260066020526040908190205490517f1042c45b0000000000000000000000000000000000000000000000000000000081528383166004820152911690631042c45b9060240160206040518083038186803b158015611a2457600080fd5b505afa158015611a38573d6000803e3d6000fd5b505050506040513d601f19601f82011682018060405250810190611a5c91906146bf565b15611aa95760405162461bcd60e51b815260206004820152601c60248201527f5573657220697320616c7265616479206120737562736372696265720000000060448201526064016104f0565b33600090815260066020526040908190205490517ff29362510000000000000000000000000000000000000000000000000000000081526001600160a01b0387811660048301529091169063f293625190602401600060405180830381600087803b158015611b1757600080fd5b505af1158015611b2b573d6000803e3d6000fd5b505050506001600160a01b03858116600090815260066020526040908190205490517f94555d1a0000000000000000000000000000000000000000000000000000000081523360048201529116906394555d1a90602401600060405180830381600087803b158015611b9c57600080fd5b505af1158015611bb0573d6000803e3d6000fd5b50506040514281526001600160a01b03881692503391507fb28fc0c0eb588dadcdf724fc3ef93e40bdc619874a448e441da14d52c3c3073f906020015b60405180910390a35050505050565b611c04612f9a565b611c0e8282613003565b5050565b6001600160a01b03811660009081526004602052604090206060906104899061356e565b336000818152600660205260408120549091906001600160a01b0316611c9e5760405162461bcd60e51b815260206004820152601e60248201527f557365722061646472657373206973206e6f742072656769737465726564000060448201526064016104f0565b6040517f49434d5e00000000000000000000000000000000000000000000000000000000815260009073__$166ae69d81e0c2a85c28a3b44767a780af$__906349434d5e90611cfb90309033908c908c908c908c9060040161489d565b60206040518083038186803b158015611d1357600080fd5b505af4158015611d27573d6000803e3d6000fd5b505050506040513d601f19601f82011682018060405250810190611d4b91906146dc565b60408051600060208201527fffffffffffffffffffffffffffffffffffffffff000000000000000000000000606084901b16602c820152919250611d91913391016116c9565b33600090815260066020526040908190205490517f3ff754420000000000000000000000000000000000000000000000000000000081526001600160a01b03838116600483015290911690633ff7544290602401600060405180830381600087803b158015611dff57600080fd5b505af1158015611e13573d6000803e3d6000fd5b5060009250339150829050604080516001600160a01b03861681524260208201527f06f095ada26821e903889ee7afb234766ef8aa5eeac88a0a139f40fbdbfe4833910160405180910390a4611e6a818686613518565b9695505050505050565b6000611e7f8261106b565b9050336001600160a01b0382168114611ede576040517f5b271ea20000000000000000000000000000000000000000000000000000000081526001600160a01b03808416600483015260248201859052821660448201526064016104f0565b6001600160a01b038416611f1e576040517f9577b8b300000000000000000000000000000000000000000000000000000000815260040160405180910390fd5b836001600160a01b0316826001600160a01b03161415611f3e5750505050565b6000838152600560205260409020611f569085613579565b5082826001600160a01b0316856001600160a01b03167f34b797fc5a526f7bf1d2b5de25f6564fd85ae364e3ee939aee7c1ac27871a98860405160405180910390a450505050565b336000818152600660205260409020546001600160a01b03166120035760405162461bcd60e51b815260206004820152601e60248201527f557365722061646472657373206973206e6f742072656769737465726564000060448201526064016104f0565b6040517f01ffc9a70000000000000000000000000000000000000000000000000000000081527f8ef076aa00000000000000000000000000000000000000000000000000000000600482015282906001600160a01b038216906301ffc9a79060240160206040518083038186803b15801561207d57600080fd5b505afa158015612091573d6000803e3d6000fd5b505050506040513d601f19601f820116820180604052508101906120b591906146bf565b61214d5760405162461bcd60e51b815260206004820152605860248201527f506f73742061646472657373206973206e6f7420706f696e74696e6720746f2060448201527f612076616c696420706f73742028536f6369616c4e6574776f726b506f73742060648201527f696e74657266616365206e6f7420617661696c61626c65290000000000000000608482015260a4016104f0565b306001600160a01b0316816001600160a01b0316638da5cb5b6040518163ffffffff1660e01b815260040160206040518083038186803b15801561219057600080fd5b505afa1580156121a4573d6000803e3d6000fd5b505050506040513d601f19601f820116820180604052508101906121c891906146dc565b6001600160a01b03161461226b5760405162461bcd60e51b8152602060048201526044602482018190527f506f73742061646472657373206973206e6f74206f776e656420627920637572908201527f72656e7420536f6369616c4e6574776f726b20636f6e747261637420696e737460648201527f616e636500000000000000000000000000000000000000000000000000000000608482015260a4016104f0565b3383806001600160a01b031663a6c3e6b96040518163ffffffff1660e01b815260040160206040518083038186803b1580156122a657600080fd5b505afa1580156122ba573d6000803e3d6000fd5b505050506040513d601f19601f820116820180604052508101906122de91906146dc565b6001600160a01b0316826001600160a01b0316141561233f5760405162461bcd60e51b815260206004820181905260248201527f55736572206d757374206e6f742062652074686520706f737420617574686f7260448201526064016104f0565b6040517f6038b7f800000000000000000000000000000000000000000000000000000000815233600482018190529086906001600160a01b03821690636038b7f89060240160206040518083038186803b15801561239c57600080fd5b505afa1580156123b0573d6000803e3d6000fd5b505050506040513d601f19601f820116820180604052508101906123d491906146bf565b6124205760405162461bcd60e51b815260206004820152601e60248201527f5573657220646964206e6f74206c696b652074686520706f737420796574000060448201526064016104f0565b6040517fd1d05dae0000000000000000000000000000000000000000000000000000000081523360048201526001600160a01b0388169063d1d05dae90602401600060405180830381600087803b15801561247a57600080fd5b505af115801561248e573d6000803e3d6000fd5b505033600090815260066020526040908190205490517fd1d05dae0000000000000000000000000000000000000000000000000000000081526001600160a01b038b81166004830152909116925063d1d05dae9150602401600060405180830381600087803b15801561250057600080fd5b505af1158015612514573d6000803e3d6000fd5b50506040514281526001600160a01b038a1692503391507fcfe29e184ff93a5d905406b88c3ece544de591d1065ff4f7ee19d8ba7e0c863a90602001610a48565b336000818152600660205260409020546001600160a01b03166125ba5760405162461bcd60e51b815260206004820152601e60248201527f557365722061646472657373206973206e6f742072656769737465726564000060448201526064016104f0565b6001600160a01b038083166000908152600660205260409020548391166126235760405162461bcd60e51b815260206004820152601e60248201527f557365722061646472657373206973206e6f742072656769737465726564000060448201526064016104f0565b33836001600160a01b03811682141561267e5760405162461bcd60e51b815260206004820152601760248201527f5573657273206d75737420626520646966666572656e7400000000000000000060448201526064016104f0565b6001600160a01b03828116600090815260066020526040908190205490517f1042c45b0000000000000000000000000000000000000000000000000000000081528383166004820152911690631042c45b9060240160206040518083038186803b1580156126eb57600080fd5b505afa1580156126ff573d6000803e3d6000fd5b505050506040513d601f19601f8201168201806040525081019061272391906146bf565b61276f5760405162461bcd60e51b815260206004820152601c60248201527f55736572206973206e6f7420612073756273637269626572207965740000000060448201526064016104f0565b33600090815260066020526040908190205490517f5d2052a80000000000000000000000000000000000000000000000000000000081526001600160a01b03878116600483015290911690635d2052a890602401600060405180830381600087803b1580156127dd57600080fd5b505af11580156127f1573d6000803e3d6000fd5b505050506001600160a01b03858116600090815260066020526040908190205490517f627c34ad00000000000000000000000000000000000000000000000000000000815233600482015291169063627c34ad90602401600060405180830381600087803b15801561286257600080fd5b505af1158015612876573d6000803e3d6000fd5b50506040514281526001600160a01b03881692503391507fc454fd8716f3d1a00fe1ccf95999df07044e76f6424799d86bf0b55c6331de8490602001611bed565b6128bf612f9a565b6001600160a01b03811661293b5760405162461bcd60e51b815260206004820152602660248201527f4f776e61626c653a206e6577206f776e657220697320746865207a65726f206160448201527f646472657373000000000000000000000000000000000000000000000000000060648201526084016104f0565b61294481612e19565b50565b336000818152600660205260408120549091906001600160a01b03166129af5760405162461bcd60e51b815260206004820152601e60248201527f557365722061646472657373206973206e6f742072656769737465726564000060448201526064016104f0565b6040517f01ffc9a70000000000000000000000000000000000000000000000000000000081527f8ef076aa00000000000000000000000000000000000000000000000000000000600482015283906001600160a01b038216906301ffc9a79060240160206040518083038186803b158015612a2957600080fd5b505afa158015612a3d573d6000803e3d6000fd5b505050506040513d601f19601f82011682018060405250810190612a6191906146bf565b612af95760405162461bcd60e51b815260206004820152605860248201527f506f73742061646472657373206973206e6f7420706f696e74696e6720746f2060448201527f612076616c696420706f73742028536f6369616c4e6574776f726b506f73742060648201527f696e74657266616365206e6f7420617661696c61626c65290000000000000000608482015260a4016104f0565b306001600160a01b0316816001600160a01b0316638da5cb5b6040518163ffffffff1660e01b815260040160206040518083038186803b158015612b3c57600080fd5b505afa158015612b50573d6000803e3d6000fd5b505050506040513d601f19601f82011682018060405250810190612b7491906146dc565b6001600160a01b031614612c175760405162461bcd60e51b8152602060048201526044602482018190527f506f73742061646472657373206973206e6f74206f776e656420627920637572908201527f72656e7420536f6369616c4e6574776f726b20636f6e747261637420696e737460648201527f616e636500000000000000000000000000000000000000000000000000000000608482015260a4016104f0565b6040517fc81bfe0e00000000000000000000000000000000000000000000000000000000815260009073__$166ae69d81e0c2a85c28a3b44767a780af$__9063c81bfe0e90612c7690309033908e908e908e908e908e90600401614804565b60206040518083038186803b158015612c8e57600080fd5b505af4158015612ca2573d6000803e3d6000fd5b505050506040513d601f19601f82011682018060405250810190612cc691906146dc565b60408051600060208201527fffffffffffffffffffffffffffffffffffffffff000000000000000000000000606084901b16602c820152919250612d0c913391016116c9565b6040517f703eb7240000000000000000000000000000000000000000000000000000000081526001600160a01b03828116600483015286169063703eb72490602401600060405180830381600087803b158015612d6857600080fd5b505af1158015612d7c573d6000803e3d6000fd5b505033600090815260066020526040908190205490517f3ff754420000000000000000000000000000000000000000000000000000000081526001600160a01b0385811660048301529091169250633ff754429150602401600060405180830381600087803b158015612dee57600080fd5b505af1158015612e02573d6000803e3d6000fd5b5050506001600160a01b0386169050336002611801565b6000546001600160a01b0382811691161461294457600080546001600160a01b038381167fffffffffffffffffffffffff0000000000000000000000000000000000000000831681178455604051919092169283917f8be0079c531659141344cd1fd0a4f28419497f9722a3daafe3b4186f6b6457e09190a35050565b60008281526001602090815260409091208251612eb592840190613e1b565b5060405182907fcdf4e344c0d23d4cdd0474039d176c55b19d531070dbe17856bfb993a5b5720b90600090a25050565b60007fffffffff0000000000000000000000000000000000000000000000000000000082167f4939914500000000000000000000000000000000000000000000000000000000148061048957506104898261358e565b6000818152600560205260409020612f539084613625565b5080826001600160a01b0316846001600160a01b03167f17d5389f6ab6adb2647dfa0aa365c323d37adacc30b33a65310b6158ce1373d560405160405180910390a4505050565b33612fad6000546001600160a01b031690565b6001600160a01b03161461188c5760405162461bcd60e51b815260206004820181905260248201527f4f776e61626c653a2063616c6c6572206973206e6f7420746865206f776e657260448201526064016104f0565b7fdeba1e292f8ba88238e10ab3c7f88bd4be4fac56cad5194b6ecceaf653468af182141561305d576040517f85c169bd00000000000000000000000000000000000000000000000000000000815260040160405180910390fd5b7f2f0a68ab07768e01943a599e73362a0e17a63a72e94dd2e384d2c1d4db9327568214156130b7576040517f76755b3800000000000000000000000000000000000000000000000000000000815260040160405180910390fd5b611c0e8282612e96565b6000818152600360205260409020546001600160a01b0316612944576040517fae8f9a36000000000000000000000000000000000000000000000000000000008152600481018290526024016104f0565b60008061311e8361106b565b9050806001600160a01b0316846001600160a01b0316148061315357506000838152600560205260409020613153908561363a565b949350505050565b606060006110d28361365c565b6000818152600160205260409020805460609190613185906148ea565b80601f01602080910402602001604051908101604052809291908181526020018280546131b1906148ea565b80156131fe5780601f106131d3576101008083540402835291602001916131fe565b820191906000526020600020905b8154815290600101906020018083116131e157829003601f168201915b50505050509050919050565b60006132158461106b565b9050856001600160a01b0316816001600160a01b03161461327c576040517f5b271ea20000000000000000000000000000000000000000000000000000000081526001600160a01b03808316600483015260248201869052871660448201526064016104f0565b6001600160a01b0385166132bc576040517f24ecef4d00000000000000000000000000000000000000000000000000000000815260040160405180910390fd5b336132c88787876136b7565b6132d28786613709565b6001600160a01b03871660009081526004602052604090206132f4908661375a565b506001600160a01b03861660009081526004602052604090206133179086613766565b506000858152600360205260409081902080547fffffffffffffffffffffffff0000000000000000000000000000000000000000166001600160a01b0389811691821790925591518792918a16907fb333c813a7426a7a11e2b190cad52c44119421594b47f6f32ace6d8c7207b2bf906133969086908a908a90614938565b60405180910390a46133aa87878786613772565b6133b78787878787613887565b50505050505050565b6001600160a01b038416613400576040517f24ecef4d00000000000000000000000000000000000000000000000000000000815260040160405180910390fd5b6000838152600360205260409020546001600160a01b031615613452576040517f34c7b511000000000000000000000000000000000000000000000000000000008152600481018490526024016104f0565b3361345f600086866136b7565b6001600160a01b03851660009081526004602052604090206134819085613766565b5060008481526003602052604080822080547fffffffffffffffffffffffff0000000000000000000000000000000000000000166001600160a01b03891690811790915590518692907fb333c813a7426a7a11e2b190cad52c44119421594b47f6f32ace6d8c7207b2bf906134fb90869089908990614938565b60405180910390a4613511600086868686613887565b5050505050565b8060005b81811015613511576135548585858481811061353a5761353a6146f9565b905060200201602081019061354f9190613f0b565b613a32565b61355d81614757565b905061351c565b6000610489825490565b60606104898261365c565b60006110d2836001600160a01b038416613b7e565b60007fffffffff0000000000000000000000000000000000000000000000000000000082167f714df77c00000000000000000000000000000000000000000000000000000000148061048957507f01ffc9a7000000000000000000000000000000000000000000000000000000007fffffffff00000000000000000000000000000000000000000000000000000000831614610489565b60006110d2836001600160a01b038416613bcd565b6001600160a01b038116600090815260018301602052604081205415156110d2565b6060816000018054806020026020016040519081016040528092919081815260200182805480156131fe57602002820191906000526020600020905b8154815260200190600101908083116136985750505050509050919050565b6001600160a01b0383166136de576001600260008282546136d8919061496b565b90915550505b6001600160a01b038216610c03576001600260008282546136ff9190614983565b9091555050505050565b60008181526005602052604081209061372182613564565b905060005b8181101561351157600061373a8482613cc0565b9050613747818787612f3b565b508061375281614757565b915050613726565b60006110d28383613bcd565b60006110d28383613b7e565b61379c847f6bb56a1400000000000000000000000000000000000000000000000000000000613ccc565b15610b2e576000848484846040516020016137ba949392919061499a565b60408051601f19818403018152908290527f6bb56a1400000000000000000000000000000000000000000000000000000000825291506001600160a01b03861690636bb56a1490613831907f3724c94f0815e936299cca424da4140752198e0beb7931a6e0925d11bc97544c9085906004016149fa565b600060405180830381600087803b15801561384b57600080fd5b505af115801561385f573d6000803e3d6000fd5b505050506040513d6000823e601f3d908101601f1916820160405261120f9190810190614a13565b6138b1847f6bb56a1400000000000000000000000000000000000000000000000000000000613ccc565b156139a3576000858585846040516020016138cf949392919061499a565b60408051601f19818403018152908290527f6bb56a1400000000000000000000000000000000000000000000000000000000825291506001600160a01b03861690636bb56a1490613946907fc7a120a42b6057a0cbed111fbbfbd52fcd96748c04394f77fc2c3adbe0391e019085906004016149fa565b600060405180830381600087803b15801561396057600080fd5b505af1158015613974573d6000803e3d6000fd5b505050506040513d6000823e601f3d908101601f1916820160405261399c9190810190614a13565b5050613511565b81613511576001600160a01b0384163b156139f5576040517f4349776d0000000000000000000000000000000000000000000000000000000081526001600160a01b03851660048201526024016104f0565b6040517f031731370000000000000000000000000000000000000000000000000000000081526001600160a01b03851660048201526024016104f0565b6001600160a01b03808216600090815260066020526040902054829116613a9b5760405162461bcd60e51b815260206004820152601e60248201527f557365722061646472657373206973206e6f742072656769737465726564000060448201526064016104f0565b6001600160a01b03828116600090815260066020526040908190205490517fcacbcb70000000000000000000000000000000000000000000000000000000008152858316600482015291169063cacbcb7090602401600060405180830381600087803b158015613b0a57600080fd5b505af1158015613b1e573d6000803e3d6000fd5b50505050816001600160a01b0316836001600160a01b0316336001600160a01b03167fd120eb66fc1d1f51883f85ad2776ef64e71c8fc34bb794678ff88c497d00c6eb42604051613b7191815260200190565b60405180910390a4505050565b6000818152600183016020526040812054613bc557508154600181810184556000848152602080822090930184905584548482528286019093526040902091909155610489565b506000610489565b60008181526001830160205260408120548015613cb6576000613bf1600183614983565b8554909150600090613c0590600190614983565b9050818114613c6a576000866000018281548110613c2557613c256146f9565b9060005260206000200154905080876000018481548110613c4857613c486146f9565b6000918252602080832090910192909255918252600188019052604090208390555b8554869080613c7b57613c7b614a81565b600190038181906000526020600020016000905590558560010160008681526020019081526020016000206000905560019350505050610489565b6000915050610489565b60006110d28383613df1565b604080517fffffffff00000000000000000000000000000000000000000000000000000000831660248083019190915282518083039091018152604490910182526020810180517bffffffffffffffffffffffffffffffffffffffffffffffffffffffff167f01ffc9a700000000000000000000000000000000000000000000000000000000179052905160009190829081906001600160a01b0387169061753090613d79908690614ab0565b6000604051808303818686fa925050503d8060008114613db5576040519150601f19603f3d011682016040523d82523d6000602084013e613dba565b606091505b5091509150602081511015613dd55760009350505050610489565b818015611e6a575080806020019051810190611e6a91906146bf565b6000826000018281548110613e0857613e086146f9565b9060005260206000200154905092915050565b828054613e27906148ea565b90600052602060002090601f016020900481019282613e495760008555613e8f565b82601f10613e6257805160ff1916838001178555613e8f565b82800160010185558215613e8f579182015b82811115613e8f578251825591602001919060010190613e74565b50613e9b929150613e9f565b5090565b5b80821115613e9b5760008155600101613ea0565b600060208284031215613ec657600080fd5b81357fffffffff00000000000000000000000000000000000000000000000000000000811681146110d257600080fd5b6001600160a01b038116811461294457600080fd5b600060208284031215613f1d57600080fd5b81356110d281613ef6565b60008060408385031215613f3b57600080fd5b8235613f4681613ef6565b946020939093013593505050565b7f4e487b7100000000000000000000000000000000000000000000000000000000600052604160045260246000fd5b604051601f8201601f1916810167ffffffffffffffff81118282101715613fac57613fac613f54565b604052919050565b600067ffffffffffffffff821115613fce57613fce613f54565b5060051b60200190565b600082601f830112613fe957600080fd5b81356020613ffe613ff983613fb4565b613f83565b82815260059290921b8401810191818101908684111561401d57600080fd5b8286015b848110156140385780358352918301918301614021565b509695505050505050565b600067ffffffffffffffff82111561405d5761405d613f54565b50601f01601f191660200190565b600082601f83011261407c57600080fd5b813561408a613ff982614043565b81815284602083860101111561409f57600080fd5b816020850160208301376000918101602001919091529392505050565b600082601f8301126140cd57600080fd5b813560206140dd613ff983613fb4565b82815260059290921b840181019181810190868411156140fc57600080fd5b8286015b8481101561403857803567ffffffffffffffff8111156141205760008081fd5b61412e8986838b010161406b565b845250918301918301614100565b6000806040838503121561414f57600080fd5b823567ffffffffffffffff8082111561416757600080fd5b61417386838701613fd8565b9350602085013591508082111561418957600080fd5b50614196858286016140bc565b9150509250929050565b6000602082840312156141b257600080fd5b5035919050565b6020808252825182820181905260009190848201906040850190845b818110156141fa5783516001600160a01b0316835292840192918401916001016141d5565b50909695505050505050565b60006020828403121561421857600080fd5b813567ffffffffffffffff81111561422f57600080fd5b61315384828501613fd8565b60005b8381101561425657818101518382015260200161423e565b83811115610b2e5750506000910152565b6000815180845261427f81602086016020860161423b565b601f01601f19169290920160200192915050565b6000602080830181845280855180835260408601915060408160051b870101925083870160005b82811015614306577fffffffffffffffffffffffffffffffffffffffffffffffffffffffffffffffc08886030184526142f4858351614267565b945092850192908501906001016142ba565b5092979650505050505050565b801515811461294457600080fd5b600080600080600060a0868803121561433957600080fd5b853561434481613ef6565b9450602086013561435481613ef6565b935060408601359250606086013561436b81614313565b9150608086013567ffffffffffffffff81111561438757600080fd5b6143938882890161406b565b9150509295509295909350565b6020815260006110d26020830184614267565b600082601f8301126143c457600080fd5b813560206143d4613ff983613fb4565b82815260059290921b840181019181810190868411156143f357600080fd5b8286015b8481101561403857803561440a81613ef6565b83529183019183016143f7565b600080600080600060a0868803121561442f57600080fd5b853567ffffffffffffffff8082111561444757600080fd5b61445389838a016143b3565b9650602088013591508082111561446957600080fd5b61447589838a016143b3565b9550604088013591508082111561448b57600080fd5b61449789838a01613fd8565b9450606088013591506144a982614313565b909250608087013590808211156144bf57600080fd5b50614393888289016140bc565b60008083601f8401126144de57600080fd5b50813567ffffffffffffffff8111156144f657600080fd5b60208301915083602082850101111561450e57600080fd5b9250929050565b60008083601f84011261452757600080fd5b50813567ffffffffffffffff81111561453f57600080fd5b6020830191508360208260051b850101111561450e57600080fd5b60008060008060006060868803121561457257600080fd5b853567ffffffffffffffff8082111561458a57600080fd5b61459689838a016144cc565b909750955060208801359150808211156145af57600080fd5b506145bc88828901614515565b90945092505060408601356145d081613ef6565b809150509295509295909350565b600080604083850312156145f157600080fd5b82359150602083013567ffffffffffffffff81111561460f57600080fd5b6141968582860161406b565b6020808252825182820181905260009190848201906040850190845b818110156141fa57835183529284019291840191600101614637565b6000806000806040858703121561466957600080fd5b843567ffffffffffffffff8082111561468157600080fd5b61468d888389016144cc565b909650945060208701359150808211156146a657600080fd5b506146b387828801614515565b95989497509550505050565b6000602082840312156146d157600080fd5b81516110d281614313565b6000602082840312156146ee57600080fd5b81516110d281613ef6565b7f4e487b7100000000000000000000000000000000000000000000000000000000600052603260045260246000fd5b7f4e487b7100000000000000000000000000000000000000000000000000000000600052601160045260246000fd5b60007fffffffffffffffffffffffffffffffffffffffffffffffffffffffffffffffff82141561478957614789614728565b5060010190565b818352818160208501375060006020828401015260006020601f19601f840116840101905092915050565b8183526000602080850194508260005b858110156147f95781356147de81613ef6565b6001600160a01b0316875295820195908201906001016147cb565b509495945050505050565b60006001600160a01b03808a168352808916602084015260a0604084015261483060a08401888a614790565b83810360608501526148438187896147bb565b92505080841660808401525098975050505050505050565b805160208083015191908110156111a9577fffffffffffffffffffffffffffffffffffffffffffffffffffffffffffffffff60209190910360031b1b16919050565b60006001600160a01b038089168352808816602084015250608060408301526148ca608083018688614790565b82810360608401526148dd8185876147bb565b9998505050505050505050565b600181811c908216806148fe57607f821691505b602082108114156111a9577f4e487b7100000000000000000000000000000000000000000000000000000000600052602260045260246000fd5b6001600160a01b038416815282151560208201526060604082015260006149626060830184614267565b95945050505050565b6000821982111561497e5761497e614728565b500190565b60008282101561499557614995614728565b500390565b60007fffffffffffffffffffffffffffffffffffffffff000000000000000000000000808760601b168352808660601b1660148401525083602883015282516149ea81604885016020870161423b565b9190910160480195945050505050565b8281526040602082015260006131536040830184614267565b600060208284031215614a2557600080fd5b815167ffffffffffffffff811115614a3c57600080fd5b8201601f81018413614a4d57600080fd5b8051614a5b613ff982614043565b818152856020838501011115614a7057600080fd5b61496282602083016020860161423b565b7f4e487b7100000000000000000000000000000000000000000000000000000000600052603160045260246000fd5b60008251614ac281846020870161423b565b919091019291505056fea264697066735822122087f88c6accbb1a784f42cc3644a9bf0e7bc39f3115916aaa77e4cdd0379e8a5264736f6c63430008090033deba1e292f8ba88238e10ab3c7f88bd4be4fac56cad5194b6ecceaf653468af12f0a68ab07768e01943a599e73362a0e17a63a72e94dd2e384d2c1d4db932756",
  "linkReferences": {
    "contracts/SocialNetworkPostFactory.sol": {
      "SocialNetworkPostFactory": [
        {
          "length": 20,
          "start": 7039
        },
        {
          "length": 20,
          "start": 8773
        },
        {
          "length": 20,
          "start": 12734
        }
      ]
    },
    "contracts/SocialNetworkProfileDataFactory.sol": {
      "SocialNetworkProfileDataFactory": [
        {
          "length": 20,
          "start": 5342
        }
      ]
    }
  },
  "deployedLinkReferences": {
    "contracts/SocialNetworkPostFactory.sol": {
      "SocialNetworkPostFactory": [
        {
          "length": 20,
          "start": 5635
        },
        {
          "length": 20,
          "start": 7369
        },
        {
          "length": 20,
          "start": 11330
        }
      ]
    },
    "contracts/SocialNetworkProfileDataFactory.sol": {
      "SocialNetworkProfileDataFactory": [
        {
          "length": 20,
          "start": 3938
        }
      ]
    }
  }
}